{
  "address": "0xeB90ACc257b4e01bA69E921A05438678C1859418",
  "abi": [
    {
      "inputs": [
        {
          "internalType": "string",
          "name": "name",
          "type": "string"
        },
        {
          "internalType": "string",
          "name": "symbol",
          "type": "string"
        }
      ],
      "stateMutability": "nonpayable",
      "type": "constructor"
    },
    {
      "anonymous": false,
      "inputs": [
        {
          "indexed": true,
          "internalType": "address",
          "name": "owner",
          "type": "address"
        },
        {
          "indexed": true,
          "internalType": "address",
          "name": "approved",
          "type": "address"
        },
        {
          "indexed": true,
          "internalType": "uint256",
          "name": "tokenId",
          "type": "uint256"
        }
      ],
      "name": "Approval",
      "type": "event"
    },
    {
      "anonymous": false,
      "inputs": [
        {
          "indexed": true,
          "internalType": "address",
          "name": "owner",
          "type": "address"
        },
        {
          "indexed": true,
          "internalType": "address",
          "name": "operator",
          "type": "address"
        },
        {
          "indexed": false,
          "internalType": "bool",
          "name": "approved",
          "type": "bool"
        }
      ],
      "name": "ApprovalForAll",
      "type": "event"
    },
    {
      "anonymous": false,
      "inputs": [
        {
          "indexed": true,
          "internalType": "bytes32",
          "name": "role",
          "type": "bytes32"
        },
        {
          "indexed": true,
          "internalType": "bytes32",
          "name": "previousAdminRole",
          "type": "bytes32"
        },
        {
          "indexed": true,
          "internalType": "bytes32",
          "name": "newAdminRole",
          "type": "bytes32"
        }
      ],
      "name": "RoleAdminChanged",
      "type": "event"
    },
    {
      "anonymous": false,
      "inputs": [
        {
          "indexed": true,
          "internalType": "bytes32",
          "name": "role",
          "type": "bytes32"
        },
        {
          "indexed": true,
          "internalType": "address",
          "name": "account",
          "type": "address"
        },
        {
          "indexed": true,
          "internalType": "address",
          "name": "sender",
          "type": "address"
        }
      ],
      "name": "RoleGranted",
      "type": "event"
    },
    {
      "anonymous": false,
      "inputs": [
        {
          "indexed": true,
          "internalType": "bytes32",
          "name": "role",
          "type": "bytes32"
        },
        {
          "indexed": true,
          "internalType": "address",
          "name": "account",
          "type": "address"
        },
        {
          "indexed": true,
          "internalType": "address",
          "name": "sender",
          "type": "address"
        }
      ],
      "name": "RoleRevoked",
      "type": "event"
    },
    {
      "anonymous": false,
      "inputs": [
        {
          "indexed": true,
          "internalType": "address",
          "name": "from",
          "type": "address"
        },
        {
          "indexed": true,
          "internalType": "address",
          "name": "to",
          "type": "address"
        },
        {
          "indexed": true,
          "internalType": "uint256",
          "name": "tokenId",
          "type": "uint256"
        }
      ],
      "name": "Transfer",
      "type": "event"
    },
    {
      "inputs": [],
      "name": "DEFAULT_ADMIN_ROLE",
      "outputs": [
        {
          "internalType": "bytes32",
          "name": "",
          "type": "bytes32"
        }
      ],
      "stateMutability": "view",
      "type": "function"
    },
    {
      "inputs": [],
      "name": "MANAGER_ROLE",
      "outputs": [
        {
          "internalType": "bytes32",
          "name": "",
          "type": "bytes32"
        }
      ],
      "stateMutability": "view",
      "type": "function"
    },
    {
      "inputs": [],
      "name": "_baseURIPrefix",
      "outputs": [
        {
          "internalType": "string",
          "name": "",
          "type": "string"
        }
      ],
      "stateMutability": "view",
      "type": "function"
    },
    {
      "inputs": [
        {
          "internalType": "address",
          "name": "to",
          "type": "address"
        },
        {
          "internalType": "uint256",
          "name": "tokenId",
          "type": "uint256"
        }
      ],
      "name": "approve",
      "outputs": [],
      "stateMutability": "nonpayable",
      "type": "function"
    },
    {
      "inputs": [
        {
          "internalType": "address",
          "name": "owner",
          "type": "address"
        }
      ],
      "name": "balanceOf",
      "outputs": [
        {
          "internalType": "uint256",
          "name": "",
          "type": "uint256"
        }
      ],
      "stateMutability": "view",
      "type": "function"
    },
    {
      "inputs": [
        {
          "internalType": "uint256",
          "name": "tokenId",
          "type": "uint256"
        }
      ],
      "name": "burn",
      "outputs": [],
      "stateMutability": "nonpayable",
      "type": "function"
    },
    {
      "inputs": [
        {
          "internalType": "uint256",
          "name": "tokenId",
          "type": "uint256"
        }
      ],
      "name": "getApproved",
      "outputs": [
        {
          "internalType": "address",
          "name": "",
          "type": "address"
        }
      ],
      "stateMutability": "view",
      "type": "function"
    },
    {
      "inputs": [
        {
          "internalType": "bytes32",
          "name": "role",
          "type": "bytes32"
        }
      ],
      "name": "getRoleAdmin",
      "outputs": [
        {
          "internalType": "bytes32",
          "name": "",
          "type": "bytes32"
        }
      ],
      "stateMutability": "view",
      "type": "function"
    },
    {
      "inputs": [
        {
          "internalType": "bytes32",
          "name": "role",
          "type": "bytes32"
        },
        {
          "internalType": "uint256",
          "name": "index",
          "type": "uint256"
        }
      ],
      "name": "getRoleMember",
      "outputs": [
        {
          "internalType": "address",
          "name": "",
          "type": "address"
        }
      ],
      "stateMutability": "view",
      "type": "function"
    },
    {
      "inputs": [
        {
          "internalType": "bytes32",
          "name": "role",
          "type": "bytes32"
        }
      ],
      "name": "getRoleMemberCount",
      "outputs": [
        {
          "internalType": "uint256",
          "name": "",
          "type": "uint256"
        }
      ],
      "stateMutability": "view",
      "type": "function"
    },
    {
      "inputs": [
        {
          "internalType": "bytes32",
          "name": "role",
          "type": "bytes32"
        },
        {
          "internalType": "address",
          "name": "account",
          "type": "address"
        }
      ],
      "name": "grantRole",
      "outputs": [],
      "stateMutability": "nonpayable",
      "type": "function"
    },
    {
      "inputs": [
        {
          "internalType": "bytes32",
          "name": "role",
          "type": "bytes32"
        },
        {
          "internalType": "address",
          "name": "account",
          "type": "address"
        }
      ],
      "name": "hasRole",
      "outputs": [
        {
          "internalType": "bool",
          "name": "",
          "type": "bool"
        }
      ],
      "stateMutability": "view",
      "type": "function"
    },
    {
      "inputs": [
        {
          "internalType": "address",
          "name": "owner",
          "type": "address"
        },
        {
          "internalType": "address",
          "name": "operator",
          "type": "address"
        }
      ],
      "name": "isApprovedForAll",
      "outputs": [
        {
          "internalType": "bool",
          "name": "",
          "type": "bool"
        }
      ],
      "stateMutability": "view",
      "type": "function"
    },
    {
      "inputs": [
        {
          "internalType": "address",
          "name": "to",
          "type": "address"
        },
        {
          "internalType": "uint256",
          "name": "tokendId",
          "type": "uint256"
        }
      ],
      "name": "mint",
      "outputs": [],
      "stateMutability": "nonpayable",
      "type": "function"
    },
    {
      "inputs": [],
      "name": "name",
      "outputs": [
        {
          "internalType": "string",
          "name": "",
          "type": "string"
        }
      ],
      "stateMutability": "view",
      "type": "function"
    },
    {
      "inputs": [
        {
          "internalType": "uint256",
          "name": "tokenId",
          "type": "uint256"
        }
      ],
      "name": "ownerOf",
      "outputs": [
        {
          "internalType": "address",
          "name": "",
          "type": "address"
        }
      ],
      "stateMutability": "view",
      "type": "function"
    },
    {
      "inputs": [
        {
          "internalType": "bytes32",
          "name": "role",
          "type": "bytes32"
        },
        {
          "internalType": "address",
          "name": "account",
          "type": "address"
        }
      ],
      "name": "renounceRole",
      "outputs": [],
      "stateMutability": "nonpayable",
      "type": "function"
    },
    {
      "inputs": [
        {
          "internalType": "bytes32",
          "name": "role",
          "type": "bytes32"
        },
        {
          "internalType": "address",
          "name": "account",
          "type": "address"
        }
      ],
      "name": "revokeRole",
      "outputs": [],
      "stateMutability": "nonpayable",
      "type": "function"
    },
    {
      "inputs": [
        {
          "internalType": "address",
          "name": "from",
          "type": "address"
        },
        {
          "internalType": "address",
          "name": "to",
          "type": "address"
        },
        {
          "internalType": "uint256",
          "name": "tokenId",
          "type": "uint256"
        }
      ],
      "name": "safeTransferFrom",
      "outputs": [],
      "stateMutability": "nonpayable",
      "type": "function"
    },
    {
      "inputs": [
        {
          "internalType": "address",
          "name": "from",
          "type": "address"
        },
        {
          "internalType": "address",
          "name": "to",
          "type": "address"
        },
        {
          "internalType": "uint256",
          "name": "tokenId",
          "type": "uint256"
        },
        {
          "internalType": "bytes",
          "name": "data",
          "type": "bytes"
        }
      ],
      "name": "safeTransferFrom",
      "outputs": [],
      "stateMutability": "nonpayable",
      "type": "function"
    },
    {
      "inputs": [
        {
          "internalType": "address",
          "name": "operator",
          "type": "address"
        },
        {
          "internalType": "bool",
          "name": "approved",
          "type": "bool"
        }
      ],
      "name": "setApprovalForAll",
      "outputs": [],
      "stateMutability": "nonpayable",
      "type": "function"
    },
    {
      "inputs": [
        {
          "internalType": "string",
          "name": "baseURIPrefix",
          "type": "string"
        }
      ],
      "name": "setBaseURI",
      "outputs": [],
      "stateMutability": "nonpayable",
      "type": "function"
    },
    {
      "inputs": [
        {
          "internalType": "bytes4",
          "name": "interfaceId",
          "type": "bytes4"
        }
      ],
      "name": "supportsInterface",
      "outputs": [
        {
          "internalType": "bool",
          "name": "",
          "type": "bool"
        }
      ],
      "stateMutability": "view",
      "type": "function"
    },
    {
      "inputs": [],
      "name": "symbol",
      "outputs": [
        {
          "internalType": "string",
          "name": "",
          "type": "string"
        }
      ],
      "stateMutability": "view",
      "type": "function"
    },
    {
      "inputs": [
        {
          "internalType": "uint256",
          "name": "tokenId",
          "type": "uint256"
        }
      ],
      "name": "tokenURI",
      "outputs": [
        {
          "internalType": "string",
          "name": "",
          "type": "string"
        }
      ],
      "stateMutability": "view",
      "type": "function"
    },
    {
      "inputs": [
        {
          "internalType": "address",
          "name": "from",
          "type": "address"
        },
        {
          "internalType": "address",
          "name": "to",
          "type": "address"
        },
        {
          "internalType": "uint256",
          "name": "tokenId",
          "type": "uint256"
        }
      ],
      "name": "transferFrom",
      "outputs": [],
      "stateMutability": "nonpayable",
      "type": "function"
    }
  ],
  "transactionHash": "0x67b7b5d2a2593a9e335c4f0739022afff668f0b0f04d56145cc4b0f8e6e4eaf7",
  "args": [
    "Brickie",
    "Brickie"
  ],
  "numDeployments": 1,
  "solcInputHash": "ad6900f150f322d33647dc9e88f456e6",
  "bytecode": "0x608060405234801562000010575f80fd5b50604051620023f5380380620023f58339810160408190526200003391620002a1565b81815f62000042838262000390565b50600162000051828262000390565b506200006291505f90503362000096565b6200008e7f241ecf16d79d0f8dbfb92cbc07fe17840425976cf0667f022fe9877caa831b083362000096565b50506200045c565b620000a28282620000a6565b5050565b620000b28282620000d0565b5f828152600760205260409020620000cb908262000172565b505050565b5f8281526006602090815260408083206001600160a01b038516845290915290205460ff16620000a2575f8281526006602090815260408083206001600160a01b03851684529091529020805460ff191660011790556200012e3390565b6001600160a01b0316816001600160a01b0316837f2f8788117e7eff1d82e926ec794901d17c78024a50270940304540a733656f0d60405160405180910390a45050565b5f62000188836001600160a01b03841662000191565b90505b92915050565b5f818152600183016020526040812054620001d857508154600181810184555f8481526020808220909301849055845484825282860190935260409020919091556200018b565b505f6200018b565b634e487b7160e01b5f52604160045260245ffd5b5f82601f83011262000204575f80fd5b81516001600160401b0380821115620002215762000221620001e0565b604051601f8301601f19908116603f011681019082821181831017156200024c576200024c620001e0565b816040528381526020925086602085880101111562000269575f80fd5b5f91505b838210156200028c57858201830151818301840152908201906200026d565b5f602085830101528094505050505092915050565b5f8060408385031215620002b3575f80fd5b82516001600160401b0380821115620002ca575f80fd5b620002d886838701620001f4565b93506020850151915080821115620002ee575f80fd5b50620002fd85828601620001f4565b9150509250929050565b600181811c908216806200031c57607f821691505b6020821081036200033b57634e487b7160e01b5f52602260045260245ffd5b50919050565b601f821115620000cb57805f5260205f20601f840160051c81016020851015620003685750805b601f840160051c820191505b8181101562000389575f815560010162000374565b5050505050565b81516001600160401b03811115620003ac57620003ac620001e0565b620003c481620003bd845462000307565b8462000341565b602080601f831160018114620003fa575f8415620003e25750858301515b5f19600386901b1c1916600185901b17855562000454565b5f85815260208120601f198616915b828110156200042a5788860151825594840194600190910190840162000409565b50858210156200044857878501515f19600388901b60f8161c191681555b505060018460011b0185555b505050505050565b611f8b806200046a5f395ff3fe608060405234801561000f575f80fd5b5060043610610187575f3560e01c80636352211e116100d9578063a22cb46511610093578063ca15c8731161006e578063ca15c87314610359578063d547741f1461036c578063e985e9c51461037f578063ec87621c146103ba575f80fd5b8063a22cb46514610320578063b88d4fde14610333578063c87b56dd14610346575f80fd5b80636352211e146102c557806370a08231146102d85780639010d07c146102eb57806391d14854146102fe57806395d89b4114610311578063a217fddf14610319575f80fd5b80632f2ff15d1161014457806342842e0e1161011f57806342842e0e1461028457806342966c681461029757806355f804b3146102aa5780635fa4e6c4146102bd575f80fd5b80632f2ff15d1461024b57806336568abe1461025e57806340c10f1914610271575f80fd5b806301ffc9a71461018b57806306fdde03146101b3578063081812fc146101c8578063095ea7b3146101f357806323b872dd14610208578063248a9ca31461021b575b5f80fd5b61019e610199366004611893565b6103e1565b60405190151581526020015b60405180910390f35b6101bb610426565b6040516101aa91906118fb565b6101db6101d636600461190d565b6104b5565b6040516001600160a01b0390911681526020016101aa565b61020661020136600461193f565b6104da565b005b610206610216366004611967565b6105f3565b61023d61022936600461190d565b5f9081526006602052604090206001015490565b6040519081526020016101aa565b6102066102593660046119a0565b610625565b61020661026c3660046119a0565b610649565b61020661027f36600461193f565b6106c7565b610206610292366004611967565b610738565b6102066102a536600461190d565b610752565b6102066102b8366004611a51565b610783565b6101bb6107f6565b6101db6102d336600461190d565b610882565b61023d6102e6366004611a96565b6108e1565b6101db6102f9366004611aaf565b610965565b61019e61030c3660046119a0565b610983565b6101bb6109ad565b61023d5f81565b61020661032e366004611acf565b6109bc565b610206610341366004611b08565b6109c7565b6101bb61035436600461190d565b6109ff565b61023d61036736600461190d565b610a62565b61020661037a3660046119a0565b610a78565b61019e61038d366004611b7f565b6001600160a01b039182165f90815260056020908152604080832093909416825291909152205460ff1690565b61023d7f241ecf16d79d0f8dbfb92cbc07fe17840425976cf0667f022fe9877caa831b0881565b5f6001600160e01b031982166380ac58cd60e01b148061041157506001600160e01b03198216630b7f5a3560e31b145b80610420575061042082610a9c565b92915050565b60605f805461043490611ba7565b80601f016020809104026020016040519081016040528092919081815260200182805461046090611ba7565b80156104ab5780601f10610482576101008083540402835291602001916104ab565b820191905f5260205f20905b81548152906001019060200180831161048e57829003601f168201915b5050505050905090565b5f6104bf82610ac0565b505f908152600460205260409020546001600160a01b031690565b5f6104e482610882565b9050806001600160a01b0316836001600160a01b0316036105565760405162461bcd60e51b815260206004820152602160248201527f4552433732313a20617070726f76616c20746f2063757272656e74206f776e656044820152603960f91b60648201526084015b60405180910390fd5b336001600160a01b03821614806105725750610572813361038d565b6105e45760405162461bcd60e51b815260206004820152603d60248201527f4552433732313a20617070726f76652063616c6c6572206973206e6f7420746f60448201527f6b656e206f776e6572206f7220617070726f76656420666f7220616c6c000000606482015260840161054d565b6105ee8383610b1e565b505050565b6105fe335b82610b8b565b61061a5760405162461bcd60e51b815260040161054d90611bdf565b6105ee838383610c08565b5f8281526006602052604090206001015461063f81610d6a565b6105ee8383610d74565b6001600160a01b03811633146106b95760405162461bcd60e51b815260206004820152602f60248201527f416363657373436f6e74726f6c3a2063616e206f6e6c792072656e6f756e636560448201526e103937b632b9903337b91039b2b63360891b606482015260840161054d565b6106c38282610d95565b5050565b6106f17f241ecf16d79d0f8dbfb92cbc07fe17840425976cf0667f022fe9877caa831b0833610983565b61072e5760405162461bcd60e51b815260206004820152600e60248201526d24b73b30b634b21039b2b73232b960911b604482015260640161054d565b6106c38282610db6565b6105ee83838360405180602001604052805f8152506109c7565b61075b336105f8565b6107775760405162461bcd60e51b815260040161054d90611bdf565b61078081610dcf565b50565b6107ad7f241ecf16d79d0f8dbfb92cbc07fe17840425976cf0667f022fe9877caa831b0833610983565b6107ea5760405162461bcd60e51b815260206004820152600e60248201526d24b73b30b634b21039b2b73232b960911b604482015260640161054d565b60086106c38282611c77565b6008805461080390611ba7565b80601f016020809104026020016040519081016040528092919081815260200182805461082f90611ba7565b801561087a5780601f106108515761010080835404028352916020019161087a565b820191905f5260205f20905b81548152906001019060200180831161085d57829003601f168201915b505050505081565b5f818152600260205260408120546001600160a01b0316806104205760405162461bcd60e51b8152602060048201526018602482015277115490cdcc8c4e881a5b9d985b1a59081d1bdad95b88125160421b604482015260640161054d565b5f6001600160a01b03821661094a5760405162461bcd60e51b815260206004820152602960248201527f4552433732313a2061646472657373207a65726f206973206e6f7420612076616044820152683634b21037bbb732b960b91b606482015260840161054d565b506001600160a01b03165f9081526003602052604090205490565b5f82815260076020526040812061097c9083610e61565b9392505050565b5f9182526006602090815260408084206001600160a01b0393909316845291905290205460ff1690565b60606001805461043490611ba7565b6106c3338383610e6c565b6109d13383610b8b565b6109ed5760405162461bcd60e51b815260040161054d90611bdf565b6109f984848484610f39565b50505050565b6060610a0a82610ac0565b5f610a13610f6c565b90505f815111610a315760405180602001604052805f81525061097c565b80610a3b84610f7b565b604051602001610a4c929190611d37565b6040516020818303038152906040529392505050565b5f8181526007602052604081206104209061100b565b5f82815260066020526040902060010154610a9281610d6a565b6105ee8383610d95565b5f6001600160e01b03198216635a05180f60e01b1480610420575061042082611014565b5f818152600260205260409020546001600160a01b03166107805760405162461bcd60e51b8152602060048201526018602482015277115490cdcc8c4e881a5b9d985b1a59081d1bdad95b88125160421b604482015260640161054d565b5f81815260046020526040902080546001600160a01b0319166001600160a01b0384169081179091558190610b5282610882565b6001600160a01b03167f8c5be1e5ebec7d5bd14f71427d1e84f3dd0314c0f7b2291e5b200ac8c7c3b92560405160405180910390a45050565b5f80610b9683610882565b9050806001600160a01b0316846001600160a01b03161480610bdc57506001600160a01b038082165f9081526005602090815260408083209388168352929052205460ff165b80610c005750836001600160a01b0316610bf5846104b5565b6001600160a01b0316145b949350505050565b826001600160a01b0316610c1b82610882565b6001600160a01b031614610c415760405162461bcd60e51b815260040161054d90611d65565b6001600160a01b038216610ca35760405162461bcd60e51b8152602060048201526024808201527f4552433732313a207472616e7366657220746f20746865207a65726f206164646044820152637265737360e01b606482015260840161054d565b826001600160a01b0316610cb682610882565b6001600160a01b031614610cdc5760405162461bcd60e51b815260040161054d90611d65565b5f81815260046020908152604080832080546001600160a01b03199081169091556001600160a01b038781168086526003855283862080545f1901905590871680865283862080546001019055868652600290945282852080549092168417909155905184937fddf252ad1be2c89b69c2b068fc378daa952ba7f163c4a11628f55a4df523b3ef91a4505050565b6107808133611038565b610d7e8282611091565b5f8281526007602052604090206105ee9082611116565b610d9f828261112a565b5f8281526007602052604090206105ee9082611190565b6106c3828260405180602001604052805f8152506111a4565b5f610dd982610882565b9050610de482610882565b5f83815260046020908152604080832080546001600160a01b03199081169091556001600160a01b0385168085526003845282852080545f190190558785526002909352818420805490911690555192935084927fddf252ad1be2c89b69c2b068fc378daa952ba7f163c4a11628f55a4df523b3ef908390a45050565b5f61097c83836111d6565b816001600160a01b0316836001600160a01b031603610ecd5760405162461bcd60e51b815260206004820152601960248201527f4552433732313a20617070726f766520746f2063616c6c657200000000000000604482015260640161054d565b6001600160a01b038381165f81815260056020908152604080832094871680845294825291829020805460ff191686151590811790915591519182527f17307eab39ab6107e8899845ad3d59bd9653f200f220920489ca2b5937696c31910160405180910390a3505050565b610f44848484610c08565b610f50848484846111fc565b6109f95760405162461bcd60e51b815260040161054d90611daa565b60606008805461043490611ba7565b60605f610f87836112f9565b60010190505f8167ffffffffffffffff811115610fa657610fa66119ca565b6040519080825280601f01601f191660200182016040528015610fd0576020820181803683370190505b5090508181016020015b5f19016f181899199a1a9b1b9c1cb0b131b232b360811b600a86061a8153600a8504945084610fda57509392505050565b5f610420825490565b5f6001600160e01b03198216637965db0b60e01b14806104205750610420826113d0565b6110428282610983565b6106c35761104f8161141f565b61105a836020611431565b60405160200161106b929190611dfc565b60408051601f198184030181529082905262461bcd60e51b825261054d916004016118fb565b61109b8282610983565b6106c3575f8281526006602090815260408083206001600160a01b03851684529091529020805460ff191660011790556110d23390565b6001600160a01b0316816001600160a01b0316837f2f8788117e7eff1d82e926ec794901d17c78024a50270940304540a733656f0d60405160405180910390a45050565b5f61097c836001600160a01b0384166115c7565b6111348282610983565b156106c3575f8281526006602090815260408083206001600160a01b0385168085529252808320805460ff1916905551339285917ff6391f5c32d9c69d2a47ea670b442974b53935d1edc7fd64eb21e047a839171b9190a45050565b5f61097c836001600160a01b038416611613565b6111ae83836116f6565b6111ba5f8484846111fc565b6105ee5760405162461bcd60e51b815260040161054d90611daa565b5f825f0182815481106111eb576111eb611e70565b905f5260205f200154905092915050565b5f6001600160a01b0384163b156112ee57604051630a85bd0160e11b81526001600160a01b0385169063150b7a029061123f903390899088908890600401611e84565b6020604051808303815f875af1925050508015611279575060408051601f3d908101601f1916820190925261127691810190611ec0565b60015b6112d4573d8080156112a6576040519150601f19603f3d011682016040523d82523d5f602084013e6112ab565b606091505b5080515f036112cc5760405162461bcd60e51b815260040161054d90611daa565b805181602001fd5b6001600160e01b031916630a85bd0160e11b149050610c00565b506001949350505050565b5f8072184f03e93ff9f4daa797ed6e38ed64bf6a1f0160401b83106113375772184f03e93ff9f4daa797ed6e38ed64bf6a1f0160401b830492506040015b6d04ee2d6d415b85acef81000000008310611363576d04ee2d6d415b85acef8100000000830492506020015b662386f26fc10000831061138157662386f26fc10000830492506010015b6305f5e1008310611399576305f5e100830492506008015b61271083106113ad57612710830492506004015b606483106113bf576064830492506002015b600a83106104205760010192915050565b5f6001600160e01b031982166380ac58cd60e01b148061140057506001600160e01b03198216635b5e139f60e01b145b8061042057506301ffc9a760e01b6001600160e01b0319831614610420565b60606104206001600160a01b03831660145b60605f61143f836002611eef565b61144a906002611f06565b67ffffffffffffffff811115611462576114626119ca565b6040519080825280601f01601f19166020018201604052801561148c576020820181803683370190505b509050600360fc1b815f815181106114a6576114a6611e70565b60200101906001600160f81b03191690815f1a905350600f60fb1b816001815181106114d4576114d4611e70565b60200101906001600160f81b03191690815f1a9053505f6114f6846002611eef565b611501906001611f06565b90505b6001811115611578576f181899199a1a9b1b9c1cb0b131b232b360811b85600f166010811061153557611535611e70565b1a60f81b82828151811061154b5761154b611e70565b60200101906001600160f81b03191690815f1a90535060049490941c9361157181611f19565b9050611504565b50831561097c5760405162461bcd60e51b815260206004820181905260248201527f537472696e67733a20686578206c656e67746820696e73756666696369656e74604482015260640161054d565b5f81815260018301602052604081205461160c57508154600181810184555f848152602080822090930184905584548482528286019093526040902091909155610420565b505f610420565b5f81815260018301602052604081205480156116ed575f611635600183611f2e565b85549091505f9061164890600190611f2e565b90508181146116a7575f865f01828154811061166657611666611e70565b905f5260205f200154905080875f01848154811061168657611686611e70565b5f918252602080832090910192909255918252600188019052604090208390555b85548690806116b8576116b8611f41565b600190038181905f5260205f20015f90559055856001015f8681526020019081526020015f205f905560019350505050610420565b5f915050610420565b6001600160a01b03821661174c5760405162461bcd60e51b815260206004820181905260248201527f4552433732313a206d696e7420746f20746865207a65726f2061646472657373604482015260640161054d565b5f818152600260205260409020546001600160a01b0316156117b05760405162461bcd60e51b815260206004820152601c60248201527f4552433732313a20746f6b656e20616c7265616479206d696e74656400000000604482015260640161054d565b5f818152600260205260409020546001600160a01b0316156118145760405162461bcd60e51b815260206004820152601c60248201527f4552433732313a20746f6b656e20616c7265616479206d696e74656400000000604482015260640161054d565b6001600160a01b0382165f81815260036020908152604080832080546001019055848352600290915280822080546001600160a01b0319168417905551839291907fddf252ad1be2c89b69c2b068fc378daa952ba7f163c4a11628f55a4df523b3ef908290a45050565b6001600160e01b031981168114610780575f80fd5b5f602082840312156118a3575f80fd5b813561097c8161187e565b5f5b838110156118c85781810151838201526020016118b0565b50505f910152565b5f81518084526118e78160208601602086016118ae565b601f01601f19169290920160200192915050565b602081525f61097c60208301846118d0565b5f6020828403121561191d575f80fd5b5035919050565b80356001600160a01b038116811461193a575f80fd5b919050565b5f8060408385031215611950575f80fd5b61195983611924565b946020939093013593505050565b5f805f60608486031215611979575f80fd5b61198284611924565b925061199060208501611924565b9150604084013590509250925092565b5f80604083850312156119b1575f80fd5b823591506119c160208401611924565b90509250929050565b634e487b7160e01b5f52604160045260245ffd5b5f67ffffffffffffffff808411156119f8576119f86119ca565b604051601f8501601f19908116603f01168101908282118183101715611a2057611a206119ca565b81604052809350858152868686011115611a38575f80fd5b858560208301375f602087830101525050509392505050565b5f60208284031215611a61575f80fd5b813567ffffffffffffffff811115611a77575f80fd5b8201601f81018413611a87575f80fd5b610c00848235602084016119de565b5f60208284031215611aa6575f80fd5b61097c82611924565b5f8060408385031215611ac0575f80fd5b50508035926020909101359150565b5f8060408385031215611ae0575f80fd5b611ae983611924565b915060208301358015158114611afd575f80fd5b809150509250929050565b5f805f8060808587031215611b1b575f80fd5b611b2485611924565b9350611b3260208601611924565b925060408501359150606085013567ffffffffffffffff811115611b54575f80fd5b8501601f81018713611b64575f80fd5b611b73878235602084016119de565b91505092959194509250565b5f8060408385031215611b90575f80fd5b611b9983611924565b91506119c160208401611924565b600181811c90821680611bbb57607f821691505b602082108103611bd957634e487b7160e01b5f52602260045260245ffd5b50919050565b6020808252602d908201527f4552433732313a2063616c6c6572206973206e6f7420746f6b656e206f776e6560408201526c1c881bdc88185c1c1c9bdd9959609a1b606082015260800190565b601f8211156105ee57805f5260205f20601f840160051c81016020851015611c515750805b601f840160051c820191505b81811015611c70575f8155600101611c5d565b5050505050565b815167ffffffffffffffff811115611c9157611c916119ca565b611ca581611c9f8454611ba7565b84611c2c565b602080601f831160018114611cd8575f8415611cc15750858301515b5f19600386901b1c1916600185901b178555611d2f565b5f85815260208120601f198616915b82811015611d0657888601518255948401946001909101908401611ce7565b5085821015611d2357878501515f19600388901b60f8161c191681555b505060018460011b0185555b505050505050565b5f8351611d488184602088016118ae565b835190830190611d5c8183602088016118ae565b01949350505050565b60208082526025908201527f4552433732313a207472616e736665722066726f6d20696e636f72726563742060408201526437bbb732b960d91b606082015260800190565b60208082526032908201527f4552433732313a207472616e7366657220746f206e6f6e20455243373231526560408201527131b2b4bb32b91034b6b83632b6b2b73a32b960711b606082015260800190565b7f416363657373436f6e74726f6c3a206163636f756e742000000000000000000081525f8351611e338160178501602088016118ae565b7001034b99036b4b9b9b4b733903937b6329607d1b6017918401918201528351611e648160288401602088016118ae565b01602801949350505050565b634e487b7160e01b5f52603260045260245ffd5b6001600160a01b03858116825284166020820152604081018390526080606082018190525f90611eb6908301846118d0565b9695505050505050565b5f60208284031215611ed0575f80fd5b815161097c8161187e565b634e487b7160e01b5f52601160045260245ffd5b808202811582820484141761042057610420611edb565b8082018082111561042057610420611edb565b5f81611f2757611f27611edb565b505f190190565b8181038181111561042057610420611edb565b634e487b7160e01b5f52603160045260245ffdfea2646970667358221220da5fee17a6a728738413b95c9469cb2aea8bf99b1c7e0ced1cf99f11c868b18f64736f6c63430008160033",
  "devdoc": {
    "events": {
      "Approval(address,address,uint256)": {
        "details": "Emitted when `owner` enables `approved` to manage the `tokenId` token."
      },
      "ApprovalForAll(address,address,bool)": {
        "details": "Emitted when `owner` enables or disables (`approved`) `operator` to manage all of its assets."
      },
      "RoleAdminChanged(bytes32,bytes32,bytes32)": {
        "details": "Emitted when `newAdminRole` is set as ``role``'s admin role, replacing `previousAdminRole` `DEFAULT_ADMIN_ROLE` is the starting admin for all roles, despite {RoleAdminChanged} not being emitted signaling this. _Available since v3.1._"
      },
      "RoleGranted(bytes32,address,address)": {
        "details": "Emitted when `account` is granted `role`. `sender` is the account that originated the contract call, an admin role bearer except when using {AccessControl-_setupRole}."
      },
      "RoleRevoked(bytes32,address,address)": {
        "details": "Emitted when `account` is revoked `role`. `sender` is the account that originated the contract call:   - if using `revokeRole`, it is the admin role bearer   - if using `renounceRole`, it is the role bearer (i.e. `account`)"
      },
      "Transfer(address,address,uint256)": {
        "details": "Emitted when `tokenId` token is transferred from `from` to `to`."
      }
    },
    "kind": "dev",
    "methods": {
      "approve(address,uint256)": {
        "details": "See {IERC721-approve}."
      },
      "balanceOf(address)": {
        "details": "See {IERC721-balanceOf}."
      },
      "burn(uint256)": {
        "details": "Burns `tokenId`. See {ERC721-_burn}. Requirements: - The caller must own `tokenId` or be an approved operator."
      },
      "getApproved(uint256)": {
        "details": "See {IERC721-getApproved}."
      },
      "getRoleAdmin(bytes32)": {
        "details": "Returns the admin role that controls `role`. See {grantRole} and {revokeRole}. To change a role's admin, use {_setRoleAdmin}."
      },
      "getRoleMember(bytes32,uint256)": {
        "details": "Returns one of the accounts that have `role`. `index` must be a value between 0 and {getRoleMemberCount}, non-inclusive. Role bearers are not sorted in any particular way, and their ordering may change at any point. WARNING: When using {getRoleMember} and {getRoleMemberCount}, make sure you perform all queries on the same block. See the following https://forum.openzeppelin.com/t/iterating-over-elements-on-enumerableset-in-openzeppelin-contracts/2296[forum post] for more information."
      },
      "getRoleMemberCount(bytes32)": {
        "details": "Returns the number of accounts that have `role`. Can be used together with {getRoleMember} to enumerate all bearers of a role."
      },
      "grantRole(bytes32,address)": {
        "details": "Grants `role` to `account`. If `account` had not been already granted `role`, emits a {RoleGranted} event. Requirements: - the caller must have ``role``'s admin role. May emit a {RoleGranted} event."
      },
      "hasRole(bytes32,address)": {
        "details": "Returns `true` if `account` has been granted `role`."
      },
      "isApprovedForAll(address,address)": {
        "details": "See {IERC721-isApprovedForAll}."
      },
      "mint(address,uint256)": {
        "params": {
          "to": "receiver address",
          "tokendId": "tokenId"
        }
      },
      "name()": {
        "details": "See {IERC721Metadata-name}."
      },
      "ownerOf(uint256)": {
        "details": "See {IERC721-ownerOf}."
      },
      "renounceRole(bytes32,address)": {
        "details": "Revokes `role` from the calling account. Roles are often managed via {grantRole} and {revokeRole}: this function's purpose is to provide a mechanism for accounts to lose their privileges if they are compromised (such as when a trusted device is misplaced). If the calling account had been revoked `role`, emits a {RoleRevoked} event. Requirements: - the caller must be `account`. May emit a {RoleRevoked} event."
      },
      "revokeRole(bytes32,address)": {
        "details": "Revokes `role` from `account`. If `account` had been granted `role`, emits a {RoleRevoked} event. Requirements: - the caller must have ``role``'s admin role. May emit a {RoleRevoked} event."
      },
      "safeTransferFrom(address,address,uint256)": {
        "details": "See {IERC721-safeTransferFrom}."
      },
      "safeTransferFrom(address,address,uint256,bytes)": {
        "details": "See {IERC721-safeTransferFrom}."
      },
      "setApprovalForAll(address,bool)": {
        "details": "See {IERC721-setApprovalForAll}."
      },
      "setBaseURI(string)": {
        "params": {
          "baseURIPrefix": "newBaseURI"
        }
      },
      "symbol()": {
        "details": "See {IERC721Metadata-symbol}."
      },
      "tokenURI(uint256)": {
        "details": "See {IERC721Metadata-tokenURI}."
      },
      "transferFrom(address,address,uint256)": {
        "details": "See {IERC721-transferFrom}."
      }
    },
    "version": 1
  },
  "userdoc": {
    "kind": "user",
    "methods": {
      "mint(address,uint256)": {
        "notice": "issue new nft"
      },
      "setBaseURI(string)": {
        "notice": "update new baseURI"
      }
    },
    "version": 1
  },
  "storageLayout": {
    "storage": [
      {
        "astId": 564,
        "contract": "contracts/BrickieNFT.sol:BrickieNFT",
        "label": "_name",
        "offset": 0,
        "slot": "0",
        "type": "t_string_storage"
      },
      {
        "astId": 566,
        "contract": "contracts/BrickieNFT.sol:BrickieNFT",
        "label": "_symbol",
        "offset": 0,
        "slot": "1",
        "type": "t_string_storage"
      },
      {
        "astId": 570,
        "contract": "contracts/BrickieNFT.sol:BrickieNFT",
        "label": "_owners",
        "offset": 0,
        "slot": "2",
        "type": "t_mapping(t_uint256,t_address)"
      },
      {
        "astId": 574,
        "contract": "contracts/BrickieNFT.sol:BrickieNFT",
        "label": "_balances",
        "offset": 0,
        "slot": "3",
        "type": "t_mapping(t_address,t_uint256)"
      },
      {
        "astId": 578,
        "contract": "contracts/BrickieNFT.sol:BrickieNFT",
        "label": "_tokenApprovals",
        "offset": 0,
        "slot": "4",
        "type": "t_mapping(t_uint256,t_address)"
      },
      {
        "astId": 584,
        "contract": "contracts/BrickieNFT.sol:BrickieNFT",
        "label": "_operatorApprovals",
        "offset": 0,
        "slot": "5",
        "type": "t_mapping(t_address,t_mapping(t_address,t_bool))"
      },
      {
        "astId": 24,
        "contract": "contracts/BrickieNFT.sol:BrickieNFT",
        "label": "_roles",
        "offset": 0,
        "slot": "6",
        "type": "t_mapping(t_bytes32,t_struct(RoleData)19_storage)"
      },
      {
        "astId": 334,
        "contract": "contracts/BrickieNFT.sol:BrickieNFT",
        "label": "_roleMembers",
        "offset": 0,
        "slot": "7",
        "type": "t_mapping(t_bytes32,t_struct(AddressSet)3936_storage)"
      },
      {
        "astId": 4540,
        "contract": "contracts/BrickieNFT.sol:BrickieNFT",
        "label": "_baseURIPrefix",
        "offset": 0,
        "slot": "8",
        "type": "t_string_storage"
      }
    ],
    "types": {
      "t_address": {
        "encoding": "inplace",
        "label": "address",
        "numberOfBytes": "20"
      },
      "t_array(t_bytes32)dyn_storage": {
        "base": "t_bytes32",
        "encoding": "dynamic_array",
        "label": "bytes32[]",
        "numberOfBytes": "32"
      },
      "t_bool": {
        "encoding": "inplace",
        "label": "bool",
        "numberOfBytes": "1"
      },
      "t_bytes32": {
        "encoding": "inplace",
        "label": "bytes32",
        "numberOfBytes": "32"
      },
      "t_mapping(t_address,t_bool)": {
        "encoding": "mapping",
        "key": "t_address",
        "label": "mapping(address => bool)",
        "numberOfBytes": "32",
        "value": "t_bool"
      },
      "t_mapping(t_address,t_mapping(t_address,t_bool))": {
        "encoding": "mapping",
        "key": "t_address",
        "label": "mapping(address => mapping(address => bool))",
        "numberOfBytes": "32",
        "value": "t_mapping(t_address,t_bool)"
      },
      "t_mapping(t_address,t_uint256)": {
        "encoding": "mapping",
        "key": "t_address",
        "label": "mapping(address => uint256)",
        "numberOfBytes": "32",
        "value": "t_uint256"
      },
      "t_mapping(t_bytes32,t_struct(AddressSet)3936_storage)": {
        "encoding": "mapping",
        "key": "t_bytes32",
        "label": "mapping(bytes32 => struct EnumerableSet.AddressSet)",
        "numberOfBytes": "32",
        "value": "t_struct(AddressSet)3936_storage"
      },
      "t_mapping(t_bytes32,t_struct(RoleData)19_storage)": {
        "encoding": "mapping",
        "key": "t_bytes32",
        "label": "mapping(bytes32 => struct AccessControl.RoleData)",
        "numberOfBytes": "32",
        "value": "t_struct(RoleData)19_storage"
      },
      "t_mapping(t_bytes32,t_uint256)": {
        "encoding": "mapping",
        "key": "t_bytes32",
        "label": "mapping(bytes32 => uint256)",
        "numberOfBytes": "32",
        "value": "t_uint256"
      },
      "t_mapping(t_uint256,t_address)": {
        "encoding": "mapping",
        "key": "t_uint256",
        "label": "mapping(uint256 => address)",
        "numberOfBytes": "32",
        "value": "t_address"
      },
      "t_string_storage": {
        "encoding": "bytes",
        "label": "string",
        "numberOfBytes": "32"
      },
      "t_struct(AddressSet)3936_storage": {
        "encoding": "inplace",
        "label": "struct EnumerableSet.AddressSet",
        "members": [
          {
            "astId": 3935,
            "contract": "contracts/BrickieNFT.sol:BrickieNFT",
            "label": "_inner",
            "offset": 0,
            "slot": "0",
            "type": "t_struct(Set)3621_storage"
          }
        ],
        "numberOfBytes": "64"
      },
      "t_struct(RoleData)19_storage": {
        "encoding": "inplace",
        "label": "struct AccessControl.RoleData",
        "members": [
          {
            "astId": 16,
            "contract": "contracts/BrickieNFT.sol:BrickieNFT",
            "label": "members",
            "offset": 0,
            "slot": "0",
            "type": "t_mapping(t_address,t_bool)"
          },
          {
            "astId": 18,
            "contract": "contracts/BrickieNFT.sol:BrickieNFT",
            "label": "adminRole",
            "offset": 0,
            "slot": "1",
            "type": "t_bytes32"
          }
        ],
        "numberOfBytes": "64"
      },
      "t_struct(Set)3621_storage": {
        "encoding": "inplace",
        "label": "struct EnumerableSet.Set",
        "members": [
          {
            "astId": 3616,
            "contract": "contracts/BrickieNFT.sol:BrickieNFT",
            "label": "_values",
            "offset": 0,
            "slot": "0",
            "type": "t_array(t_bytes32)dyn_storage"
          },
          {
            "astId": 3620,
            "contract": "contracts/BrickieNFT.sol:BrickieNFT",
            "label": "_indexes",
            "offset": 0,
            "slot": "1",
            "type": "t_mapping(t_bytes32,t_uint256)"
          }
        ],
        "numberOfBytes": "64"
      },
      "t_uint256": {
        "encoding": "inplace",
        "label": "uint256",
        "numberOfBytes": "32"
      }
    }
  }
}