{
  "address": "0xC75fDb8e8805674CDe121ce1Cf603961e3F4E080",
  "abi": [
    {
      "inputs": [
        {
          "internalType": "address",
          "name": "nftAddr",
          "type": "address"
        },
        {
          "internalType": "address payable",
          "name": "treasureWallet",
          "type": "address"
        }
      ],
      "stateMutability": "nonpayable",
      "type": "constructor"
    },
    {
      "anonymous": false,
      "inputs": [
        {
          "indexed": false,
          "internalType": "address",
          "name": "user",
          "type": "address"
        },
        {
          "indexed": false,
          "internalType": "uint256",
          "name": "tokenId",
          "type": "uint256"
        },
        {
          "indexed": false,
          "internalType": "uint256",
          "name": "price",
          "type": "uint256"
        },
        {
          "indexed": false,
          "internalType": "uint256",
          "name": "nonce",
          "type": "uint256"
        }
      ],
      "name": "Minted",
      "type": "event"
    },
    {
      "anonymous": false,
      "inputs": [
        {
          "indexed": false,
          "internalType": "address",
          "name": "user",
          "type": "address"
        },
        {
          "indexed": false,
          "internalType": "uint256",
          "name": "tokenId",
          "type": "uint256"
        },
        {
          "indexed": false,
          "internalType": "uint256",
          "name": "price",
          "type": "uint256"
        },
        {
          "indexed": false,
          "internalType": "uint256",
          "name": "nonce",
          "type": "uint256"
        },
        {
          "indexed": false,
          "internalType": "uint256",
          "name": "plays",
          "type": "uint256"
        }
      ],
      "name": "Refilled",
      "type": "event"
    },
    {
      "anonymous": false,
      "inputs": [
        {
          "indexed": true,
          "internalType": "bytes32",
          "name": "role",
          "type": "bytes32"
        },
        {
          "indexed": true,
          "internalType": "bytes32",
          "name": "previousAdminRole",
          "type": "bytes32"
        },
        {
          "indexed": true,
          "internalType": "bytes32",
          "name": "newAdminRole",
          "type": "bytes32"
        }
      ],
      "name": "RoleAdminChanged",
      "type": "event"
    },
    {
      "anonymous": false,
      "inputs": [
        {
          "indexed": true,
          "internalType": "bytes32",
          "name": "role",
          "type": "bytes32"
        },
        {
          "indexed": true,
          "internalType": "address",
          "name": "account",
          "type": "address"
        },
        {
          "indexed": true,
          "internalType": "address",
          "name": "sender",
          "type": "address"
        }
      ],
      "name": "RoleGranted",
      "type": "event"
    },
    {
      "anonymous": false,
      "inputs": [
        {
          "indexed": true,
          "internalType": "bytes32",
          "name": "role",
          "type": "bytes32"
        },
        {
          "indexed": true,
          "internalType": "address",
          "name": "account",
          "type": "address"
        },
        {
          "indexed": true,
          "internalType": "address",
          "name": "sender",
          "type": "address"
        }
      ],
      "name": "RoleRevoked",
      "type": "event"
    },
    {
      "inputs": [],
      "name": "DEFAULT_ADMIN_ROLE",
      "outputs": [
        {
          "internalType": "bytes32",
          "name": "",
          "type": "bytes32"
        }
      ],
      "stateMutability": "view",
      "type": "function"
    },
    {
      "inputs": [],
      "name": "MANAGER_ROLE",
      "outputs": [
        {
          "internalType": "bytes32",
          "name": "",
          "type": "bytes32"
        }
      ],
      "stateMutability": "view",
      "type": "function"
    },
    {
      "inputs": [],
      "name": "_nftAddr",
      "outputs": [
        {
          "internalType": "address",
          "name": "",
          "type": "address"
        }
      ],
      "stateMutability": "view",
      "type": "function"
    },
    {
      "inputs": [
        {
          "internalType": "uint256",
          "name": "",
          "type": "uint256"
        }
      ],
      "name": "_nonces",
      "outputs": [
        {
          "internalType": "bool",
          "name": "",
          "type": "bool"
        }
      ],
      "stateMutability": "view",
      "type": "function"
    },
    {
      "inputs": [],
      "name": "_treasureWallet",
      "outputs": [
        {
          "internalType": "address payable",
          "name": "",
          "type": "address"
        }
      ],
      "stateMutability": "view",
      "type": "function"
    },
    {
      "inputs": [
        {
          "internalType": "bytes32",
          "name": "role",
          "type": "bytes32"
        }
      ],
      "name": "getRoleAdmin",
      "outputs": [
        {
          "internalType": "bytes32",
          "name": "",
          "type": "bytes32"
        }
      ],
      "stateMutability": "view",
      "type": "function"
    },
    {
      "inputs": [
        {
          "internalType": "bytes32",
          "name": "role",
          "type": "bytes32"
        },
        {
          "internalType": "uint256",
          "name": "index",
          "type": "uint256"
        }
      ],
      "name": "getRoleMember",
      "outputs": [
        {
          "internalType": "address",
          "name": "",
          "type": "address"
        }
      ],
      "stateMutability": "view",
      "type": "function"
    },
    {
      "inputs": [
        {
          "internalType": "bytes32",
          "name": "role",
          "type": "bytes32"
        }
      ],
      "name": "getRoleMemberCount",
      "outputs": [
        {
          "internalType": "uint256",
          "name": "",
          "type": "uint256"
        }
      ],
      "stateMutability": "view",
      "type": "function"
    },
    {
      "inputs": [
        {
          "internalType": "bytes32",
          "name": "role",
          "type": "bytes32"
        },
        {
          "internalType": "address",
          "name": "account",
          "type": "address"
        }
      ],
      "name": "grantRole",
      "outputs": [],
      "stateMutability": "nonpayable",
      "type": "function"
    },
    {
      "inputs": [
        {
          "internalType": "bytes32",
          "name": "role",
          "type": "bytes32"
        },
        {
          "internalType": "address",
          "name": "account",
          "type": "address"
        }
      ],
      "name": "hasRole",
      "outputs": [
        {
          "internalType": "bool",
          "name": "",
          "type": "bool"
        }
      ],
      "stateMutability": "view",
      "type": "function"
    },
    {
      "inputs": [
        {
          "internalType": "uint256",
          "name": "tokenId",
          "type": "uint256"
        },
        {
          "internalType": "uint256",
          "name": "nonce",
          "type": "uint256"
        },
        {
          "internalType": "uint256",
          "name": "deadline",
          "type": "uint256"
        },
        {
          "internalType": "bytes",
          "name": "signature",
          "type": "bytes"
        }
      ],
      "name": "mint",
      "outputs": [],
      "stateMutability": "payable",
      "type": "function"
    },
    {
      "inputs": [
        {
          "internalType": "uint256",
          "name": "tokenId",
          "type": "uint256"
        },
        {
          "internalType": "uint256",
          "name": "plays",
          "type": "uint256"
        },
        {
          "internalType": "uint256",
          "name": "nonce",
          "type": "uint256"
        },
        {
          "internalType": "uint256",
          "name": "deadline",
          "type": "uint256"
        },
        {
          "internalType": "bytes",
          "name": "signature",
          "type": "bytes"
        }
      ],
      "name": "refill",
      "outputs": [],
      "stateMutability": "payable",
      "type": "function"
    },
    {
      "inputs": [
        {
          "internalType": "bytes32",
          "name": "role",
          "type": "bytes32"
        },
        {
          "internalType": "address",
          "name": "account",
          "type": "address"
        }
      ],
      "name": "renounceRole",
      "outputs": [],
      "stateMutability": "nonpayable",
      "type": "function"
    },
    {
      "inputs": [
        {
          "internalType": "bytes32",
          "name": "role",
          "type": "bytes32"
        },
        {
          "internalType": "address",
          "name": "account",
          "type": "address"
        }
      ],
      "name": "revokeRole",
      "outputs": [],
      "stateMutability": "nonpayable",
      "type": "function"
    },
    {
      "inputs": [
        {
          "internalType": "address payable",
          "name": "treasureWallet",
          "type": "address"
        }
      ],
      "name": "setTreasureWallet",
      "outputs": [],
      "stateMutability": "nonpayable",
      "type": "function"
    },
    {
      "inputs": [
        {
          "internalType": "bytes4",
          "name": "interfaceId",
          "type": "bytes4"
        }
      ],
      "name": "supportsInterface",
      "outputs": [
        {
          "internalType": "bool",
          "name": "",
          "type": "bool"
        }
      ],
      "stateMutability": "view",
      "type": "function"
    },
    {
      "stateMutability": "payable",
      "type": "receive"
    }
  ],
  "transactionHash": "0x11b32dae042356447c7735849c7cd8e3a6c32bc996b66ca82aa54de3d793c8b8",
  "args": [
    "0x58f1A03789BD219b7CCD9B6d954C514DA719e29A",
    "0x342A7b30c0daF528aB8786f497b2c20112Ef4364"
  ],
  "numDeployments": 1,
  "solcInputHash": "71cf385f3dd0dd2bbeb1fdd0bb73107e",
  "bytecode": "0x60806040523480156200001157600080fd5b50604051620019aa380380620019aa8339810160408190526200003491620001d9565b6200004160003362000073565b600480546001600160a01b039384166001600160a01b0319918216179091556003805492909316911617905562000218565b6200007f828262000083565b5050565b6200008f8282620000ae565b6000828152600160205260409020620000a990826200014e565b505050565b6000828152602081815260408083206001600160a01b038516845290915290205460ff166200007f576000828152602081815260408083206001600160a01b03851684529091529020805460ff191660011790556200010a3390565b6001600160a01b0316816001600160a01b0316837f2f8788117e7eff1d82e926ec794901d17c78024a50270940304540a733656f0d60405160405180910390a45050565b600062000165836001600160a01b0384166200016e565b90505b92915050565b6000818152600183016020526040812054620001b75750815460018181018455600084815260208082209093018490558454848252828601909352604090209190915562000168565b50600062000168565b6001600160a01b0381168114620001d657600080fd5b50565b60008060408385031215620001ed57600080fd5b8251620001fa81620001c0565b60208401519092506200020d81620001c0565b809150509250929050565b61178280620002286000396000f3fe6080604052600436106100f75760003560e01c806391d148541161008a578063d547741f11610059578063d547741f146102c8578063dcaeed0f146102e8578063ec87621c146102fb578063f5f7b9621461031d57600080fd5b806391d1485414610253578063a217fddf14610273578063c33d81a314610288578063ca15c873146102a857600080fd5b806336568abe116100c657806336568abe146101c857806337138e35146101e85780634a9eee69146102205780639010d07c1461023357600080fd5b806301ffc9a714610103578063029ba1fa14610138578063248a9ca3146101685780632f2ff15d146101a657600080fd5b366100fe57005b600080fd5b34801561010f57600080fd5b5061012361011e366004611394565b61033d565b60405190151581526020015b60405180910390f35b34801561014457600080fd5b506101236101533660046113be565b60026020526000908152604090205460ff1681565b34801561017457600080fd5b506101986101833660046113be565b60009081526020819052604090206001015490565b60405190815260200161012f565b3480156101b257600080fd5b506101c66101c13660046113ec565b610368565b005b3480156101d457600080fd5b506101c66101e33660046113ec565b610392565b3480156101f457600080fd5b50600454610208906001600160a01b031681565b6040516001600160a01b03909116815260200161012f565b6101c661022e36600461145e565b610415565b34801561023f57600080fd5b5061020861024e3660046114bf565b6107aa565b34801561025f57600080fd5b5061012361026e3660046113ec565b6107c9565b34801561027f57600080fd5b50610198600081565b34801561029457600080fd5b50600354610208906001600160a01b031681565b3480156102b457600080fd5b506101986102c33660046113be565b6107f2565b3480156102d457600080fd5b506101c66102e33660046113ec565b610809565b6101c66102f63660046114e1565b61082e565b34801561030757600080fd5b5061019860008051602061172d83398151915281565b34801561032957600080fd5b506101c661033836600461154b565b610b75565b60006001600160e01b03198216635a05180f60e01b1480610362575061036282610bfb565b92915050565b60008281526020819052604090206001015461038381610c30565b61038d8383610c3d565b505050565b6001600160a01b03811633146104075760405162461bcd60e51b815260206004820152602f60248201527f416363657373436f6e74726f6c3a2063616e206f6e6c792072656e6f756e636560448201526e103937b632b9903337b91039b2b63360891b60648201526084015b60405180910390fd5b6104118282610c5f565b5050565b600084815260026020526040902054849060ff16156104665760405162461bcd60e51b815260206004820152600d60248201526c696e76616c6964206e6f6e636560981b60448201526064016103fe565b838042106104aa5760405162461bcd60e51b81526020600482015260116024820152700696e76616c69642074696d657374616d7607c1b60448201526064016103fe565b33600480546040516370a0823160e01b81526001600160a01b038481169382019390935291169081906370a0823190602401602060405180830381865afa1580156104f9573d6000803e3d6000fd5b505050506040513d601f19601f8201168201806040525081019061051d9190611568565b156105625760405162461bcd60e51b8152602060048201526015602482015274616c7265616479206861732067616d65207061737360581b60448201526064016103fe565b60408051466020808301919091526bffffffffffffffffffffffff1930606090811b82168486015233901b166054830152606882018c905234608883015260a882018b905260c88083018b90528351808403909101815260e890920190925280519101207f19457468657265756d205369676e6564204d6573736167653a0a3332000000006000908152601c829052603c8120905061064960008051602061172d83398151915261026e838b8b8080601f016020809104026020016040519081016040528093929190818152602001838380828437600092019190915250610c8192505050565b6106895760405162461bcd60e51b8152602060048201526011602482015270696e76616c6964207369676e617475726560781b60448201526064016103fe565b60008a8152600260205260409020805460ff191660011790556004546001600160a01b0316806340c10f196106bb3390565b6040516001600160e01b031960e084901b1681526001600160a01b039091166004820152602481018f9052604401600060405180830381600087803b15801561070357600080fd5b505af1158015610717573d6000803e3d6000fd5b50506003546040516001600160a01b0390911692503480156108fc029250906000818181858888f19350505050158015610755573d6000803e3d6000fd5b5060408051338152602081018e90523481830152606081018d905290517f5a3358a3d27a5373c0df2604662088d37894d56b7cfd27f315770440f4e0d9199181900360800190a1505050505050505050505050565b60008281526001602052604081206107c29083610ca5565b9392505050565b6000918252602082815260408084206001600160a01b0393909316845291905290205460ff1690565b600081815260016020526040812061036290610cb1565b60008281526020819052604090206001015461082481610c30565b61038d8383610c5f565b600084815260026020526040902054849060ff161561087f5760405162461bcd60e51b815260206004820152600d60248201526c696e76616c6964206e6f6e636560981b60448201526064016103fe565b838042106108c35760405162461bcd60e51b81526020600482015260116024820152700696e76616c69642074696d657374616d7607c1b60448201526064016103fe565b60408051466020808301919091526bffffffffffffffffffffffff1930606090811b82168486015233901b166054830152606882018b9052608882018a90523460a883015260c8820189905260e88083018990528351808403909101815261010890920190925280519101207f19457468657265756d205369676e6564204d6573736167653a0a3332000000006000908152601c829052603c812090506109b260008051602061172d83398151915261026e8389898080601f016020809104026020016040519081016040528093929190818152602001838380828437600092019190915250610c8192505050565b6109f25760405162461bcd60e51b8152602060048201526011602482015270696e76616c6964207369676e617475726560781b60448201526064016103fe565b6000888152600260205260409020805460ff191660011790556004546001600160a01b0316610a1e3390565b6040516331a9108f60e11b8152600481018d90526001600160a01b0391821691831690636352211e90602401602060405180830381865afa158015610a67573d6000803e3d6000fd5b505050506040513d601f19601f82011682018060405250810190610a8b9190611581565b6001600160a01b031614610ae15760405162461bcd60e51b815260206004820152601860248201527f696e76616c6964206f776e6572206f6620746f6b656e4964000000000000000060448201526064016103fe565b6003546040516001600160a01b03909116903480156108fc02916000818181858888f19350505050158015610b1a573d6000803e3d6000fd5b5060408051338152602081018d90523481830152606081018b9052608081018c905290517f77e0ca0528ed13c028e4984651cd5e1ecf0dd36ee67f698cbb1891a5ad74249a9181900360a00190a15050505050505050505050565b610b8d60008051602061172d833981519152336107c9565b610bd95760405162461bcd60e51b815260206004820152601c60248201527f5370696e436f6e74726163743a20496e76616c69642073656e6465720000000060448201526064016103fe565b600380546001600160a01b0319166001600160a01b0392909216919091179055565b60006001600160e01b03198216637965db0b60e01b148061036257506301ffc9a760e01b6001600160e01b0319831614610362565b610c3a8133610cbb565b50565b610c478282610d14565b600082815260016020526040902061038d9082610d98565b610c698282610dad565b600082815260016020526040902061038d9082610e12565b6000806000610c908585610e27565b91509150610c9d81610e6c565b509392505050565b60006107c28383610fb6565b6000610362825490565b610cc582826107c9565b61041157610cd281610fe0565b610cdd836020610ff2565b604051602001610cee9291906115c2565b60408051601f198184030181529082905262461bcd60e51b82526103fe91600401611637565b610d1e82826107c9565b610411576000828152602081815260408083206001600160a01b03851684529091529020805460ff19166001179055610d543390565b6001600160a01b0316816001600160a01b0316837f2f8788117e7eff1d82e926ec794901d17c78024a50270940304540a733656f0d60405160405180910390a45050565b60006107c2836001600160a01b03841661118e565b610db782826107c9565b15610411576000828152602081815260408083206001600160a01b0385168085529252808320805460ff1916905551339285917ff6391f5c32d9c69d2a47ea670b442974b53935d1edc7fd64eb21e047a839171b9190a45050565b60006107c2836001600160a01b0384166111dd565b6000808251604103610e5d5760208301516040840151606085015160001a610e51878285856112d0565b94509450505050610e65565b506000905060025b9250929050565b6000816004811115610e8057610e8061166a565b03610e885750565b6001816004811115610e9c57610e9c61166a565b03610ee95760405162461bcd60e51b815260206004820152601860248201527f45434453413a20696e76616c6964207369676e6174757265000000000000000060448201526064016103fe565b6002816004811115610efd57610efd61166a565b03610f4a5760405162461bcd60e51b815260206004820152601f60248201527f45434453413a20696e76616c6964207369676e6174757265206c656e6774680060448201526064016103fe565b6003816004811115610f5e57610f5e61166a565b03610c3a5760405162461bcd60e51b815260206004820152602260248201527f45434453413a20696e76616c6964207369676e6174757265202773272076616c604482015261756560f01b60648201526084016103fe565b6000826000018281548110610fcd57610fcd611680565b9060005260206000200154905092915050565b60606103626001600160a01b03831660145b606060006110018360026116ac565b61100c9060026116c3565b67ffffffffffffffff811115611024576110246116d6565b6040519080825280601f01601f19166020018201604052801561104e576020820181803683370190505b509050600360fc1b8160008151811061106957611069611680565b60200101906001600160f81b031916908160001a905350600f60fb1b8160018151811061109857611098611680565b60200101906001600160f81b031916908160001a90535060006110bc8460026116ac565b6110c79060016116c3565b90505b600181111561113f576f181899199a1a9b1b9c1cb0b131b232b360811b85600f16601081106110fb576110fb611680565b1a60f81b82828151811061111157611111611680565b60200101906001600160f81b031916908160001a90535060049490941c93611138816116ec565b90506110ca565b5083156107c25760405162461bcd60e51b815260206004820181905260248201527f537472696e67733a20686578206c656e67746820696e73756666696369656e7460448201526064016103fe565b60008181526001830160205260408120546111d557508154600181810184556000848152602080822090930184905584548482528286019093526040902091909155610362565b506000610362565b600081815260018301602052604081205480156112c6576000611201600183611703565b855490915060009061121590600190611703565b905081811461127a57600086600001828154811061123557611235611680565b906000526020600020015490508087600001848154811061125857611258611680565b6000918252602080832090910192909255918252600188019052604090208390555b855486908061128b5761128b611716565b600190038181906000526020600020016000905590558560010160008681526020019081526020016000206000905560019350505050610362565b6000915050610362565b6000807f7fffffffffffffffffffffffffffffff5d576e7357a4501ddfe92f46681b20a0831115611307575060009050600361138b565b6040805160008082526020820180845289905260ff881692820192909252606081018690526080810185905260019060a0016020604051602081039080840390855afa15801561135b573d6000803e3d6000fd5b5050604051601f1901519150506001600160a01b0381166113845760006001925092505061138b565b9150600090505b94509492505050565b6000602082840312156113a657600080fd5b81356001600160e01b0319811681146107c257600080fd5b6000602082840312156113d057600080fd5b5035919050565b6001600160a01b0381168114610c3a57600080fd5b600080604083850312156113ff57600080fd5b823591506020830135611411816113d7565b809150509250929050565b60008083601f84011261142e57600080fd5b50813567ffffffffffffffff81111561144657600080fd5b602083019150836020828501011115610e6557600080fd5b60008060008060006080868803121561147657600080fd5b853594506020860135935060408601359250606086013567ffffffffffffffff8111156114a257600080fd5b6114ae8882890161141c565b969995985093965092949392505050565b600080604083850312156114d257600080fd5b50508035926020909101359150565b60008060008060008060a087890312156114fa57600080fd5b86359550602087013594506040870135935060608701359250608087013567ffffffffffffffff81111561152d57600080fd5b61153989828a0161141c565b979a9699509497509295939492505050565b60006020828403121561155d57600080fd5b81356107c2816113d7565b60006020828403121561157a57600080fd5b5051919050565b60006020828403121561159357600080fd5b81516107c2816113d7565b60005b838110156115b95781810151838201526020016115a1565b50506000910152565b7f416363657373436f6e74726f6c3a206163636f756e74200000000000000000008152600083516115fa81601785016020880161159e565b7001034b99036b4b9b9b4b733903937b6329607d1b601791840191820152835161162b81602884016020880161159e565b01602801949350505050565b602081526000825180602084015261165681604085016020870161159e565b601f01601f19169190910160400192915050565b634e487b7160e01b600052602160045260246000fd5b634e487b7160e01b600052603260045260246000fd5b634e487b7160e01b600052601160045260246000fd5b808202811582820484141761036257610362611696565b8082018082111561036257610362611696565b634e487b7160e01b600052604160045260246000fd5b6000816116fb576116fb611696565b506000190190565b8181038181111561036257610362611696565b634e487b7160e01b600052603160045260246000fdfe241ecf16d79d0f8dbfb92cbc07fe17840425976cf0667f022fe9877caa831b08a2646970667358221220f9cc90e293ec492eb16e0ce030d3a606d92bd3317bc10b168e61ef949b01916464736f6c63430008130033",
  "devdoc": {
    "events": {
      "RoleAdminChanged(bytes32,bytes32,bytes32)": {
        "details": "Emitted when `newAdminRole` is set as ``role``'s admin role, replacing `previousAdminRole` `DEFAULT_ADMIN_ROLE` is the starting admin for all roles, despite {RoleAdminChanged} not being emitted signaling this. _Available since v3.1._"
      },
      "RoleGranted(bytes32,address,address)": {
        "details": "Emitted when `account` is granted `role`. `sender` is the account that originated the contract call, an admin role bearer except when using {AccessControl-_setupRole}."
      },
      "RoleRevoked(bytes32,address,address)": {
        "details": "Emitted when `account` is revoked `role`. `sender` is the account that originated the contract call:   - if using `revokeRole`, it is the admin role bearer   - if using `renounceRole`, it is the role bearer (i.e. `account`)"
      }
    },
    "kind": "dev",
    "methods": {
      "getRoleAdmin(bytes32)": {
        "details": "Returns the admin role that controls `role`. See {grantRole} and {revokeRole}. To change a role's admin, use {_setRoleAdmin}."
      },
      "getRoleMember(bytes32,uint256)": {
        "details": "Returns one of the accounts that have `role`. `index` must be a value between 0 and {getRoleMemberCount}, non-inclusive. Role bearers are not sorted in any particular way, and their ordering may change at any point. WARNING: When using {getRoleMember} and {getRoleMemberCount}, make sure you perform all queries on the same block. See the following https://forum.openzeppelin.com/t/iterating-over-elements-on-enumerableset-in-openzeppelin-contracts/2296[forum post] for more information."
      },
      "getRoleMemberCount(bytes32)": {
        "details": "Returns the number of accounts that have `role`. Can be used together with {getRoleMember} to enumerate all bearers of a role."
      },
      "grantRole(bytes32,address)": {
        "details": "Grants `role` to `account`. If `account` had not been already granted `role`, emits a {RoleGranted} event. Requirements: - the caller must have ``role``'s admin role. May emit a {RoleGranted} event."
      },
      "hasRole(bytes32,address)": {
        "details": "Returns `true` if `account` has been granted `role`."
      },
      "renounceRole(bytes32,address)": {
        "details": "Revokes `role` from the calling account. Roles are often managed via {grantRole} and {revokeRole}: this function's purpose is to provide a mechanism for accounts to lose their privileges if they are compromised (such as when a trusted device is misplaced). If the calling account had been revoked `role`, emits a {RoleRevoked} event. Requirements: - the caller must be `account`. May emit a {RoleRevoked} event."
      },
      "revokeRole(bytes32,address)": {
        "details": "Revokes `role` from `account`. If `account` had been granted `role`, emits a {RoleRevoked} event. Requirements: - the caller must have ``role``'s admin role. May emit a {RoleRevoked} event."
      },
      "supportsInterface(bytes4)": {
        "details": "See {IERC165-supportsInterface}."
      }
    },
    "version": 1
  },
  "userdoc": {
    "kind": "user",
    "methods": {},
    "version": 1
  },
  "storageLayout": {
    "storage": [
      {
        "astId": 24,
        "contract": "contracts/GamePassMarketContract.sol:GamePassMarketContract",
        "label": "_roles",
        "offset": 0,
        "slot": "0",
        "type": "t_mapping(t_bytes32,t_struct(RoleData)19_storage)"
      },
      {
        "astId": 334,
        "contract": "contracts/GamePassMarketContract.sol:GamePassMarketContract",
        "label": "_roleMembers",
        "offset": 0,
        "slot": "1",
        "type": "t_mapping(t_bytes32,t_struct(AddressSet)3936_storage)"
      },
      {
        "astId": 4244,
        "contract": "contracts/GamePassMarketContract.sol:GamePassMarketContract",
        "label": "_nonces",
        "offset": 0,
        "slot": "2",
        "type": "t_mapping(t_uint256,t_bool)"
      },
      {
        "astId": 4246,
        "contract": "contracts/GamePassMarketContract.sol:GamePassMarketContract",
        "label": "_treasureWallet",
        "offset": 0,
        "slot": "3",
        "type": "t_address_payable"
      },
      {
        "astId": 4248,
        "contract": "contracts/GamePassMarketContract.sol:GamePassMarketContract",
        "label": "_nftAddr",
        "offset": 0,
        "slot": "4",
        "type": "t_address"
      }
    ],
    "types": {
      "t_address": {
        "encoding": "inplace",
        "label": "address",
        "numberOfBytes": "20"
      },
      "t_address_payable": {
        "encoding": "inplace",
        "label": "address payable",
        "numberOfBytes": "20"
      },
      "t_array(t_bytes32)dyn_storage": {
        "base": "t_bytes32",
        "encoding": "dynamic_array",
        "label": "bytes32[]",
        "numberOfBytes": "32"
      },
      "t_bool": {
        "encoding": "inplace",
        "label": "bool",
        "numberOfBytes": "1"
      },
      "t_bytes32": {
        "encoding": "inplace",
        "label": "bytes32",
        "numberOfBytes": "32"
      },
      "t_mapping(t_address,t_bool)": {
        "encoding": "mapping",
        "key": "t_address",
        "label": "mapping(address => bool)",
        "numberOfBytes": "32",
        "value": "t_bool"
      },
      "t_mapping(t_bytes32,t_struct(AddressSet)3936_storage)": {
        "encoding": "mapping",
        "key": "t_bytes32",
        "label": "mapping(bytes32 => struct EnumerableSet.AddressSet)",
        "numberOfBytes": "32",
        "value": "t_struct(AddressSet)3936_storage"
      },
      "t_mapping(t_bytes32,t_struct(RoleData)19_storage)": {
        "encoding": "mapping",
        "key": "t_bytes32",
        "label": "mapping(bytes32 => struct AccessControl.RoleData)",
        "numberOfBytes": "32",
        "value": "t_struct(RoleData)19_storage"
      },
      "t_mapping(t_bytes32,t_uint256)": {
        "encoding": "mapping",
        "key": "t_bytes32",
        "label": "mapping(bytes32 => uint256)",
        "numberOfBytes": "32",
        "value": "t_uint256"
      },
      "t_mapping(t_uint256,t_bool)": {
        "encoding": "mapping",
        "key": "t_uint256",
        "label": "mapping(uint256 => bool)",
        "numberOfBytes": "32",
        "value": "t_bool"
      },
      "t_struct(AddressSet)3936_storage": {
        "encoding": "inplace",
        "label": "struct EnumerableSet.AddressSet",
        "members": [
          {
            "astId": 3935,
            "contract": "contracts/GamePassMarketContract.sol:GamePassMarketContract",
            "label": "_inner",
            "offset": 0,
            "slot": "0",
            "type": "t_struct(Set)3621_storage"
          }
        ],
        "numberOfBytes": "64"
      },
      "t_struct(RoleData)19_storage": {
        "encoding": "inplace",
        "label": "struct AccessControl.RoleData",
        "members": [
          {
            "astId": 16,
            "contract": "contracts/GamePassMarketContract.sol:GamePassMarketContract",
            "label": "members",
            "offset": 0,
            "slot": "0",
            "type": "t_mapping(t_address,t_bool)"
          },
          {
            "astId": 18,
            "contract": "contracts/GamePassMarketContract.sol:GamePassMarketContract",
            "label": "adminRole",
            "offset": 0,
            "slot": "1",
            "type": "t_bytes32"
          }
        ],
        "numberOfBytes": "64"
      },
      "t_struct(Set)3621_storage": {
        "encoding": "inplace",
        "label": "struct EnumerableSet.Set",
        "members": [
          {
            "astId": 3616,
            "contract": "contracts/GamePassMarketContract.sol:GamePassMarketContract",
            "label": "_values",
            "offset": 0,
            "slot": "0",
            "type": "t_array(t_bytes32)dyn_storage"
          },
          {
            "astId": 3620,
            "contract": "contracts/GamePassMarketContract.sol:GamePassMarketContract",
            "label": "_indexes",
            "offset": 0,
            "slot": "1",
            "type": "t_mapping(t_bytes32,t_uint256)"
          }
        ],
        "numberOfBytes": "64"
      },
      "t_uint256": {
        "encoding": "inplace",
        "label": "uint256",
        "numberOfBytes": "32"
      }
    }
  }
}