{
  "address": "0x4B5C08E40a3F34FA66d14197459E819a232AF90B",
  "abi": [
    {
      "inputs": [
        {
          "internalType": "address",
          "name": "nftAddr",
          "type": "address"
        },
        {
          "internalType": "address payable",
          "name": "treasureWallet",
          "type": "address"
        }
      ],
      "stateMutability": "nonpayable",
      "type": "constructor"
    },
    {
      "anonymous": false,
      "inputs": [
        {
          "indexed": false,
          "internalType": "address",
          "name": "user",
          "type": "address"
        },
        {
          "indexed": false,
          "internalType": "uint256",
          "name": "weekId",
          "type": "uint256"
        },
        {
          "indexed": false,
          "internalType": "uint256[]",
          "name": "values",
          "type": "uint256[]"
        },
        {
          "indexed": false,
          "internalType": "uint256",
          "name": "nonce",
          "type": "uint256"
        }
      ],
      "name": "Claimed",
      "type": "event"
    },
    {
      "anonymous": false,
      "inputs": [
        {
          "indexed": true,
          "internalType": "bytes32",
          "name": "role",
          "type": "bytes32"
        },
        {
          "indexed": true,
          "internalType": "bytes32",
          "name": "previousAdminRole",
          "type": "bytes32"
        },
        {
          "indexed": true,
          "internalType": "bytes32",
          "name": "newAdminRole",
          "type": "bytes32"
        }
      ],
      "name": "RoleAdminChanged",
      "type": "event"
    },
    {
      "anonymous": false,
      "inputs": [
        {
          "indexed": true,
          "internalType": "bytes32",
          "name": "role",
          "type": "bytes32"
        },
        {
          "indexed": true,
          "internalType": "address",
          "name": "account",
          "type": "address"
        },
        {
          "indexed": true,
          "internalType": "address",
          "name": "sender",
          "type": "address"
        }
      ],
      "name": "RoleGranted",
      "type": "event"
    },
    {
      "anonymous": false,
      "inputs": [
        {
          "indexed": true,
          "internalType": "bytes32",
          "name": "role",
          "type": "bytes32"
        },
        {
          "indexed": true,
          "internalType": "address",
          "name": "account",
          "type": "address"
        },
        {
          "indexed": true,
          "internalType": "address",
          "name": "sender",
          "type": "address"
        }
      ],
      "name": "RoleRevoked",
      "type": "event"
    },
    {
      "inputs": [],
      "name": "DEFAULT_ADMIN_ROLE",
      "outputs": [
        {
          "internalType": "bytes32",
          "name": "",
          "type": "bytes32"
        }
      ],
      "stateMutability": "view",
      "type": "function"
    },
    {
      "inputs": [],
      "name": "MANAGER_ROLE",
      "outputs": [
        {
          "internalType": "bytes32",
          "name": "",
          "type": "bytes32"
        }
      ],
      "stateMutability": "view",
      "type": "function"
    },
    {
      "inputs": [],
      "name": "_nftAddr",
      "outputs": [
        {
          "internalType": "address",
          "name": "",
          "type": "address"
        }
      ],
      "stateMutability": "view",
      "type": "function"
    },
    {
      "inputs": [
        {
          "internalType": "uint256",
          "name": "",
          "type": "uint256"
        }
      ],
      "name": "_nonces",
      "outputs": [
        {
          "internalType": "bool",
          "name": "",
          "type": "bool"
        }
      ],
      "stateMutability": "view",
      "type": "function"
    },
    {
      "inputs": [],
      "name": "_treasureWallet",
      "outputs": [
        {
          "internalType": "address payable",
          "name": "",
          "type": "address"
        }
      ],
      "stateMutability": "view",
      "type": "function"
    },
    {
      "inputs": [
        {
          "internalType": "uint256",
          "name": "weekId",
          "type": "uint256"
        },
        {
          "internalType": "uint256[]",
          "name": "values",
          "type": "uint256[]"
        },
        {
          "internalType": "uint256",
          "name": "nonce",
          "type": "uint256"
        },
        {
          "internalType": "uint256",
          "name": "deadline",
          "type": "uint256"
        },
        {
          "internalType": "bytes",
          "name": "signature",
          "type": "bytes"
        }
      ],
      "name": "claim",
      "outputs": [],
      "stateMutability": "payable",
      "type": "function"
    },
    {
      "inputs": [
        {
          "internalType": "bytes32",
          "name": "role",
          "type": "bytes32"
        }
      ],
      "name": "getRoleAdmin",
      "outputs": [
        {
          "internalType": "bytes32",
          "name": "",
          "type": "bytes32"
        }
      ],
      "stateMutability": "view",
      "type": "function"
    },
    {
      "inputs": [
        {
          "internalType": "bytes32",
          "name": "role",
          "type": "bytes32"
        },
        {
          "internalType": "uint256",
          "name": "index",
          "type": "uint256"
        }
      ],
      "name": "getRoleMember",
      "outputs": [
        {
          "internalType": "address",
          "name": "",
          "type": "address"
        }
      ],
      "stateMutability": "view",
      "type": "function"
    },
    {
      "inputs": [
        {
          "internalType": "bytes32",
          "name": "role",
          "type": "bytes32"
        }
      ],
      "name": "getRoleMemberCount",
      "outputs": [
        {
          "internalType": "uint256",
          "name": "",
          "type": "uint256"
        }
      ],
      "stateMutability": "view",
      "type": "function"
    },
    {
      "inputs": [
        {
          "internalType": "bytes32",
          "name": "role",
          "type": "bytes32"
        },
        {
          "internalType": "address",
          "name": "account",
          "type": "address"
        }
      ],
      "name": "grantRole",
      "outputs": [],
      "stateMutability": "nonpayable",
      "type": "function"
    },
    {
      "inputs": [
        {
          "internalType": "bytes32",
          "name": "role",
          "type": "bytes32"
        },
        {
          "internalType": "address",
          "name": "account",
          "type": "address"
        }
      ],
      "name": "hasRole",
      "outputs": [
        {
          "internalType": "bool",
          "name": "",
          "type": "bool"
        }
      ],
      "stateMutability": "view",
      "type": "function"
    },
    {
      "inputs": [
        {
          "internalType": "bytes32",
          "name": "role",
          "type": "bytes32"
        },
        {
          "internalType": "address",
          "name": "account",
          "type": "address"
        }
      ],
      "name": "renounceRole",
      "outputs": [],
      "stateMutability": "nonpayable",
      "type": "function"
    },
    {
      "inputs": [
        {
          "internalType": "bytes32",
          "name": "role",
          "type": "bytes32"
        },
        {
          "internalType": "address",
          "name": "account",
          "type": "address"
        }
      ],
      "name": "revokeRole",
      "outputs": [],
      "stateMutability": "nonpayable",
      "type": "function"
    },
    {
      "inputs": [
        {
          "internalType": "address payable",
          "name": "treasureWallet",
          "type": "address"
        }
      ],
      "name": "setTreasureWallet",
      "outputs": [],
      "stateMutability": "nonpayable",
      "type": "function"
    },
    {
      "inputs": [
        {
          "internalType": "bytes4",
          "name": "interfaceId",
          "type": "bytes4"
        }
      ],
      "name": "supportsInterface",
      "outputs": [
        {
          "internalType": "bool",
          "name": "",
          "type": "bool"
        }
      ],
      "stateMutability": "view",
      "type": "function"
    },
    {
      "stateMutability": "payable",
      "type": "receive"
    }
  ],
  "transactionHash": "0xc035a7df924b18c1a1a5f1124dfee443ed2786defd58f7f3fcd2f3834c1194de",
  "args": [
    "0x89B0330Ef315Ec6EF3a38bF99b896509126AbE05",
    "0x342A7b30c0daF528aB8786f497b2c20112Ef4364"
  ],
  "numDeployments": 1,
  "solcInputHash": "7bdbd32a9ef4605812b7452c2ec8aa35",
  "bytecode": "0x608060405234801562000010575f80fd5b5060405162001661380380620016618339810160408190526200003391620001cf565b6200003f5f3362000071565b600580546001600160a01b039384166001600160a01b031991821617909155600380549290931691161790556200020c565b6200007d828262000081565b5050565b6200008d8282620000ab565b5f828152600160205260409020620000a6908262000149565b505050565b5f828152602081815260408083206001600160a01b038516845290915290205460ff166200007d575f828152602081815260408083206001600160a01b03851684529091529020805460ff19166001179055620001053390565b6001600160a01b0316816001600160a01b0316837f2f8788117e7eff1d82e926ec794901d17c78024a50270940304540a733656f0d60405160405180910390a45050565b5f6200015f836001600160a01b03841662000168565b90505b92915050565b5f818152600183016020526040812054620001af57508154600181810184555f84815260208082209093018490558454848252828601909352604090209190915562000162565b505f62000162565b6001600160a01b0381168114620001cc575f80fd5b50565b5f8060408385031215620001e1575f80fd5b8251620001ee81620001b7565b60208401519092506200020181620001b7565b809150509250929050565b611447806200021a5f395ff3fe6080604052600436106100e7575f3560e01c80639010d07c11610087578063ca15c87311610057578063ca15c8731461028a578063d547741f146102a9578063ec87621c146102c8578063f5f7b962146102fb575f80fd5b80639010d07c1461021a57806391d1485414610239578063a217fddf14610258578063c33d81a31461026b575f80fd5b8063248a9ca3116100c2578063248a9ca3146101695780632f2ff15d146101a557806336568abe146101c457806337138e35146101e3575f80fd5b806301ffc9a7146100f2578063029ba1fa14610126578063218e8b1314610154575f80fd5b366100ee57005b5f80fd5b3480156100fd575f80fd5b5061011161010c36600461101f565b61031a565b60405190151581526020015b60405180910390f35b348015610131575f80fd5b50610111610140366004611046565b60026020525f908152604090205460ff1681565b61016761016236600461109b565b610344565b005b348015610174575f80fd5b50610197610183366004611046565b5f9081526020819052604090206001015490565b60405190815260200161011d565b3480156101b0575f80fd5b506101676101bf366004611163565b6106fa565b3480156101cf575f80fd5b506101676101de366004611163565b610723565b3480156101ee575f80fd5b50600554610202906001600160a01b031681565b6040516001600160a01b03909116815260200161011d565b348015610225575f80fd5b50610202610234366004611191565b6107a1565b348015610244575f80fd5b50610111610253366004611163565b6107bf565b348015610263575f80fd5b506101975f81565b348015610276575f80fd5b50600354610202906001600160a01b031681565b348015610295575f80fd5b506101976102a4366004611046565b6107e7565b3480156102b4575f80fd5b506101676102c3366004611163565b6107fd565b3480156102d3575f80fd5b506101977f241ecf16d79d0f8dbfb92cbc07fe17840425976cf0667f022fe9877caa831b0881565b348015610306575f80fd5b506101676103153660046111b1565b610821565b5f6001600160e01b03198216635a05180f60e01b148061033e575061033e826108b9565b92915050565b5f84815260026020526040902054849060ff16156103995760405162461bcd60e51b815260206004820152600d60248201526c696e76616c6964206e6f6e636560981b60448201526064015b60405180910390fd5b838042106103dd5760405162461bcd60e51b81526020600482015260116024820152700696e76616c69642074696d657374616d7607c1b6044820152606401610390565b335f8181526004602090815260408083208d84529091529020548a919060ff161561044a5760405162461bcd60e51b815260206004820152601760248201527f616c726561647920636c61696d2074686973207765656b0000000000000000006044820152606401610390565b5f4630338e8e8e348f8f60405160200161046c999897969594939291906111cc565b6040516020818303038152906040528051906020012090505f6104bb827f19457468657265756d205369676e6564204d6573736167653a0a3332000000005f908152601c91909152603c902090565b90506105207f241ecf16d79d0f8dbfb92cbc07fe17840425976cf0667f022fe9877caa831b08610253838b8b8080601f0160208091040260200160405190810160405280939291908181526020018383808284375f920191909152506108ed92505050565b6105605760405162461bcd60e51b8152602060048201526011602482015270696e76616c6964207369676e617475726560781b6044820152606401610390565b5f8a8152600260205260408120805460ff19166001908117909155906004906105863390565b6001600160a01b03166001600160a01b031681526020019081526020015f205f8f81526020019081526020015f205f6101000a81548160ff0219169083151502179055505f8c8c60018181106105de576105de61123e565b905060200201351115610675576005546001600160a01b0316806340c10f19338f8f60018181106106115761061161123e565b6040516001600160e01b031960e087901b1681526001600160a01b03909416600485015260200291909101356024830152506044015f604051808303815f87803b15801561065d575f80fd5b505af115801561066f573d5f803e3d5ffd5b50505050505b6003546040516001600160a01b03909116903480156108fc02915f818181858888f193505050501580156106ab573d5f803e3d5ffd5b507fec7eaa65228169ac8d37436a7b55bf4726354f8f7837020340b287926912aa49338e8e8e8e6040516106e3959493929190611252565b60405180910390a150505050505050505050505050565b5f828152602081905260409020600101546107148161090f565b61071e838361091c565b505050565b6001600160a01b03811633146107935760405162461bcd60e51b815260206004820152602f60248201527f416363657373436f6e74726f6c3a2063616e206f6e6c792072656e6f756e636560448201526e103937b632b9903337b91039b2b63360891b6064820152608401610390565b61079d828261093d565b5050565b5f8281526001602052604081206107b8908361095e565b9392505050565b5f918252602082815260408084206001600160a01b0393909316845291905290205460ff1690565b5f81815260016020526040812061033e90610969565b5f828152602081905260409020600101546108178161090f565b61071e838361093d565b61084b7f241ecf16d79d0f8dbfb92cbc07fe17840425976cf0667f022fe9877caa831b08336107bf565b6108975760405162461bcd60e51b815260206004820152601c60248201527f5370696e436f6e74726163743a20496e76616c69642073656e646572000000006044820152606401610390565b600380546001600160a01b0319166001600160a01b0392909216919091179055565b5f6001600160e01b03198216637965db0b60e01b148061033e57506301ffc9a760e01b6001600160e01b031983161461033e565b5f805f6108fa8585610972565b91509150610907816109b4565b509392505050565b6109198133610afd565b50565b6109268282610b56565b5f82815260016020526040902061071e9082610bd9565b6109478282610bed565b5f82815260016020526040902061071e9082610c51565b5f6107b88383610c65565b5f61033e825490565b5f8082516041036109a6576020830151604084015160608501515f1a61099a87828585610c8b565b945094505050506109ad565b505f905060025b9250929050565b5f8160048111156109c7576109c76112a7565b036109cf5750565b60018160048111156109e3576109e36112a7565b03610a305760405162461bcd60e51b815260206004820152601860248201527f45434453413a20696e76616c6964207369676e617475726500000000000000006044820152606401610390565b6002816004811115610a4457610a446112a7565b03610a915760405162461bcd60e51b815260206004820152601f60248201527f45434453413a20696e76616c6964207369676e6174757265206c656e677468006044820152606401610390565b6003816004811115610aa557610aa56112a7565b036109195760405162461bcd60e51b815260206004820152602260248201527f45434453413a20696e76616c6964207369676e6174757265202773272076616c604482015261756560f01b6064820152608401610390565b610b0782826107bf565b61079d57610b1481610d48565b610b1f836020610d5a565b604051602001610b309291906112dd565b60408051601f198184030181529082905262461bcd60e51b825261039091600401611351565b610b6082826107bf565b61079d575f828152602081815260408083206001600160a01b03851684529091529020805460ff19166001179055610b953390565b6001600160a01b0316816001600160a01b0316837f2f8788117e7eff1d82e926ec794901d17c78024a50270940304540a733656f0d60405160405180910390a45050565b5f6107b8836001600160a01b038416610ef0565b610bf782826107bf565b1561079d575f828152602081815260408083206001600160a01b0385168085529252808320805460ff1916905551339285917ff6391f5c32d9c69d2a47ea670b442974b53935d1edc7fd64eb21e047a839171b9190a45050565b5f6107b8836001600160a01b038416610f3c565b5f825f018281548110610c7a57610c7a61123e565b905f5260205f200154905092915050565b5f807f7fffffffffffffffffffffffffffffff5d576e7357a4501ddfe92f46681b20a0831115610cc057505f90506003610d3f565b604080515f8082526020820180845289905260ff881692820192909252606081018690526080810185905260019060a0016020604051602081039080840390855afa158015610d11573d5f803e3d5ffd5b5050604051601f1901519150506001600160a01b038116610d39575f60019250925050610d3f565b91505f90505b94509492505050565b606061033e6001600160a01b03831660145b60605f610d68836002611397565b610d739060026113ae565b67ffffffffffffffff811115610d8b57610d8b6113c1565b6040519080825280601f01601f191660200182016040528015610db5576020820181803683370190505b509050600360fc1b815f81518110610dcf57610dcf61123e565b60200101906001600160f81b03191690815f1a905350600f60fb1b81600181518110610dfd57610dfd61123e565b60200101906001600160f81b03191690815f1a9053505f610e1f846002611397565b610e2a9060016113ae565b90505b6001811115610ea1576f181899199a1a9b1b9c1cb0b131b232b360811b85600f1660108110610e5e57610e5e61123e565b1a60f81b828281518110610e7457610e7461123e565b60200101906001600160f81b03191690815f1a90535060049490941c93610e9a816113d5565b9050610e2d565b5083156107b85760405162461bcd60e51b815260206004820181905260248201527f537472696e67733a20686578206c656e67746820696e73756666696369656e746044820152606401610390565b5f818152600183016020526040812054610f3557508154600181810184555f84815260208082209093018490558454848252828601909352604090209190915561033e565b505f61033e565b5f8181526001830160205260408120548015611016575f610f5e6001836113ea565b85549091505f90610f71906001906113ea565b9050818114610fd0575f865f018281548110610f8f57610f8f61123e565b905f5260205f200154905080875f018481548110610faf57610faf61123e565b5f918252602080832090910192909255918252600188019052604090208390555b8554869080610fe157610fe16113fd565b600190038181905f5260205f20015f90559055856001015f8681526020019081526020015f205f90556001935050505061033e565b5f91505061033e565b5f6020828403121561102f575f80fd5b81356001600160e01b0319811681146107b8575f80fd5b5f60208284031215611056575f80fd5b5035919050565b5f8083601f84011261106d575f80fd5b50813567ffffffffffffffff811115611084575f80fd5b6020830191508360208285010111156109ad575f80fd5b5f805f805f805f60a0888a0312156110b1575f80fd5b87359650602088013567ffffffffffffffff808211156110cf575f80fd5b818a0191508a601f8301126110e2575f80fd5b8135818111156110f0575f80fd5b8b60208260051b8501011115611104575f80fd5b6020830198508097505060408a0135955060608a0135945060808a013591508082111561112f575f80fd5b5061113c8a828b0161105d565b989b979a50959850939692959293505050565b6001600160a01b0381168114610919575f80fd5b5f8060408385031215611174575f80fd5b8235915060208301356111868161114f565b809150509250929050565b5f80604083850312156111a2575f80fd5b50508035926020909101359150565b5f602082840312156111c1575f80fd5b81356107b88161114f565b8981526bffffffffffffffffffffffff1960608a811b8216602084015289901b166034820152604881018790525f6001600160fb1b0386111561120d575f80fd5b8560051b808860688501376068920191820194909452608881019290925260a882015260c801979650505050505050565b634e487b7160e01b5f52603260045260245ffd5b6001600160a01b03861681526020810185905260806040820181905281018390525f6001600160fb1b03841115611287575f80fd5b8360051b808660a08501376060830193909352500160a001949350505050565b634e487b7160e01b5f52602160045260245ffd5b5f5b838110156112d55781810151838201526020016112bd565b50505f910152565b7f416363657373436f6e74726f6c3a206163636f756e742000000000000000000081525f83516113148160178501602088016112bb565b7001034b99036b4b9b9b4b733903937b6329607d1b60179184019182015283516113458160288401602088016112bb565b01602801949350505050565b602081525f825180602084015261136f8160408501602087016112bb565b601f01601f19169190910160400192915050565b634e487b7160e01b5f52601160045260245ffd5b808202811582820484141761033e5761033e611383565b8082018082111561033e5761033e611383565b634e487b7160e01b5f52604160045260245ffd5b5f816113e3576113e3611383565b505f190190565b8181038181111561033e5761033e611383565b634e487b7160e01b5f52603160045260245ffdfea2646970667358221220e935ac26a3b06ff18d271c9d6952d60bb3eae9449528b778cf462e46a9d7f80164736f6c63430008160033",
  "devdoc": {
    "events": {
      "RoleAdminChanged(bytes32,bytes32,bytes32)": {
        "details": "Emitted when `newAdminRole` is set as ``role``'s admin role, replacing `previousAdminRole` `DEFAULT_ADMIN_ROLE` is the starting admin for all roles, despite {RoleAdminChanged} not being emitted signaling this. _Available since v3.1._"
      },
      "RoleGranted(bytes32,address,address)": {
        "details": "Emitted when `account` is granted `role`. `sender` is the account that originated the contract call, an admin role bearer except when using {AccessControl-_setupRole}."
      },
      "RoleRevoked(bytes32,address,address)": {
        "details": "Emitted when `account` is revoked `role`. `sender` is the account that originated the contract call:   - if using `revokeRole`, it is the admin role bearer   - if using `renounceRole`, it is the role bearer (i.e. `account`)"
      }
    },
    "kind": "dev",
    "methods": {
      "getRoleAdmin(bytes32)": {
        "details": "Returns the admin role that controls `role`. See {grantRole} and {revokeRole}. To change a role's admin, use {_setRoleAdmin}."
      },
      "getRoleMember(bytes32,uint256)": {
        "details": "Returns one of the accounts that have `role`. `index` must be a value between 0 and {getRoleMemberCount}, non-inclusive. Role bearers are not sorted in any particular way, and their ordering may change at any point. WARNING: When using {getRoleMember} and {getRoleMemberCount}, make sure you perform all queries on the same block. See the following https://forum.openzeppelin.com/t/iterating-over-elements-on-enumerableset-in-openzeppelin-contracts/2296[forum post] for more information."
      },
      "getRoleMemberCount(bytes32)": {
        "details": "Returns the number of accounts that have `role`. Can be used together with {getRoleMember} to enumerate all bearers of a role."
      },
      "grantRole(bytes32,address)": {
        "details": "Grants `role` to `account`. If `account` had not been already granted `role`, emits a {RoleGranted} event. Requirements: - the caller must have ``role``'s admin role. May emit a {RoleGranted} event."
      },
      "hasRole(bytes32,address)": {
        "details": "Returns `true` if `account` has been granted `role`."
      },
      "renounceRole(bytes32,address)": {
        "details": "Revokes `role` from the calling account. Roles are often managed via {grantRole} and {revokeRole}: this function's purpose is to provide a mechanism for accounts to lose their privileges if they are compromised (such as when a trusted device is misplaced). If the calling account had been revoked `role`, emits a {RoleRevoked} event. Requirements: - the caller must be `account`. May emit a {RoleRevoked} event."
      },
      "revokeRole(bytes32,address)": {
        "details": "Revokes `role` from `account`. If `account` had been granted `role`, emits a {RoleRevoked} event. Requirements: - the caller must have ``role``'s admin role. May emit a {RoleRevoked} event."
      },
      "supportsInterface(bytes4)": {
        "details": "See {IERC165-supportsInterface}."
      }
    },
    "version": 1
  },
  "userdoc": {
    "kind": "user",
    "methods": {},
    "version": 1
  },
  "storageLayout": {
    "storage": [
      {
        "astId": 24,
        "contract": "contracts/WeeklyRewardContract.sol:WeeklyRewardContract",
        "label": "_roles",
        "offset": 0,
        "slot": "0",
        "type": "t_mapping(t_bytes32,t_struct(RoleData)19_storage)"
      },
      {
        "astId": 334,
        "contract": "contracts/WeeklyRewardContract.sol:WeeklyRewardContract",
        "label": "_roleMembers",
        "offset": 0,
        "slot": "1",
        "type": "t_mapping(t_bytes32,t_struct(AddressSet)3936_storage)"
      },
      {
        "astId": 4367,
        "contract": "contracts/WeeklyRewardContract.sol:WeeklyRewardContract",
        "label": "_nonces",
        "offset": 0,
        "slot": "2",
        "type": "t_mapping(t_uint256,t_bool)"
      },
      {
        "astId": 4369,
        "contract": "contracts/WeeklyRewardContract.sol:WeeklyRewardContract",
        "label": "_treasureWallet",
        "offset": 0,
        "slot": "3",
        "type": "t_address_payable"
      },
      {
        "astId": 4375,
        "contract": "contracts/WeeklyRewardContract.sol:WeeklyRewardContract",
        "label": "_claimHist",
        "offset": 0,
        "slot": "4",
        "type": "t_mapping(t_address,t_mapping(t_uint256,t_bool))"
      },
      {
        "astId": 4377,
        "contract": "contracts/WeeklyRewardContract.sol:WeeklyRewardContract",
        "label": "_nftAddr",
        "offset": 0,
        "slot": "5",
        "type": "t_address"
      }
    ],
    "types": {
      "t_address": {
        "encoding": "inplace",
        "label": "address",
        "numberOfBytes": "20"
      },
      "t_address_payable": {
        "encoding": "inplace",
        "label": "address payable",
        "numberOfBytes": "20"
      },
      "t_array(t_bytes32)dyn_storage": {
        "base": "t_bytes32",
        "encoding": "dynamic_array",
        "label": "bytes32[]",
        "numberOfBytes": "32"
      },
      "t_bool": {
        "encoding": "inplace",
        "label": "bool",
        "numberOfBytes": "1"
      },
      "t_bytes32": {
        "encoding": "inplace",
        "label": "bytes32",
        "numberOfBytes": "32"
      },
      "t_mapping(t_address,t_bool)": {
        "encoding": "mapping",
        "key": "t_address",
        "label": "mapping(address => bool)",
        "numberOfBytes": "32",
        "value": "t_bool"
      },
      "t_mapping(t_address,t_mapping(t_uint256,t_bool))": {
        "encoding": "mapping",
        "key": "t_address",
        "label": "mapping(address => mapping(uint256 => bool))",
        "numberOfBytes": "32",
        "value": "t_mapping(t_uint256,t_bool)"
      },
      "t_mapping(t_bytes32,t_struct(AddressSet)3936_storage)": {
        "encoding": "mapping",
        "key": "t_bytes32",
        "label": "mapping(bytes32 => struct EnumerableSet.AddressSet)",
        "numberOfBytes": "32",
        "value": "t_struct(AddressSet)3936_storage"
      },
      "t_mapping(t_bytes32,t_struct(RoleData)19_storage)": {
        "encoding": "mapping",
        "key": "t_bytes32",
        "label": "mapping(bytes32 => struct AccessControl.RoleData)",
        "numberOfBytes": "32",
        "value": "t_struct(RoleData)19_storage"
      },
      "t_mapping(t_bytes32,t_uint256)": {
        "encoding": "mapping",
        "key": "t_bytes32",
        "label": "mapping(bytes32 => uint256)",
        "numberOfBytes": "32",
        "value": "t_uint256"
      },
      "t_mapping(t_uint256,t_bool)": {
        "encoding": "mapping",
        "key": "t_uint256",
        "label": "mapping(uint256 => bool)",
        "numberOfBytes": "32",
        "value": "t_bool"
      },
      "t_struct(AddressSet)3936_storage": {
        "encoding": "inplace",
        "label": "struct EnumerableSet.AddressSet",
        "members": [
          {
            "astId": 3935,
            "contract": "contracts/WeeklyRewardContract.sol:WeeklyRewardContract",
            "label": "_inner",
            "offset": 0,
            "slot": "0",
            "type": "t_struct(Set)3621_storage"
          }
        ],
        "numberOfBytes": "64"
      },
      "t_struct(RoleData)19_storage": {
        "encoding": "inplace",
        "label": "struct AccessControl.RoleData",
        "members": [
          {
            "astId": 16,
            "contract": "contracts/WeeklyRewardContract.sol:WeeklyRewardContract",
            "label": "members",
            "offset": 0,
            "slot": "0",
            "type": "t_mapping(t_address,t_bool)"
          },
          {
            "astId": 18,
            "contract": "contracts/WeeklyRewardContract.sol:WeeklyRewardContract",
            "label": "adminRole",
            "offset": 0,
            "slot": "1",
            "type": "t_bytes32"
          }
        ],
        "numberOfBytes": "64"
      },
      "t_struct(Set)3621_storage": {
        "encoding": "inplace",
        "label": "struct EnumerableSet.Set",
        "members": [
          {
            "astId": 3616,
            "contract": "contracts/WeeklyRewardContract.sol:WeeklyRewardContract",
            "label": "_values",
            "offset": 0,
            "slot": "0",
            "type": "t_array(t_bytes32)dyn_storage"
          },
          {
            "astId": 3620,
            "contract": "contracts/WeeklyRewardContract.sol:WeeklyRewardContract",
            "label": "_indexes",
            "offset": 0,
            "slot": "1",
            "type": "t_mapping(t_bytes32,t_uint256)"
          }
        ],
        "numberOfBytes": "64"
      },
      "t_uint256": {
        "encoding": "inplace",
        "label": "uint256",
        "numberOfBytes": "32"
      }
    }
  }
}