{
  "address": "0x23Dcb452aF7BC61B14566b86D53a4D05255aC874",
  "abi": [
    {
      "inputs": [
        {
          "internalType": "string",
          "name": "name",
          "type": "string"
        },
        {
          "internalType": "string",
          "name": "symbol",
          "type": "string"
        }
      ],
      "stateMutability": "nonpayable",
      "type": "constructor"
    },
    {
      "anonymous": false,
      "inputs": [
        {
          "indexed": true,
          "internalType": "address",
          "name": "owner",
          "type": "address"
        },
        {
          "indexed": true,
          "internalType": "address",
          "name": "approved",
          "type": "address"
        },
        {
          "indexed": true,
          "internalType": "uint256",
          "name": "tokenId",
          "type": "uint256"
        }
      ],
      "name": "Approval",
      "type": "event"
    },
    {
      "anonymous": false,
      "inputs": [
        {
          "indexed": true,
          "internalType": "address",
          "name": "owner",
          "type": "address"
        },
        {
          "indexed": true,
          "internalType": "address",
          "name": "operator",
          "type": "address"
        },
        {
          "indexed": false,
          "internalType": "bool",
          "name": "approved",
          "type": "bool"
        }
      ],
      "name": "ApprovalForAll",
      "type": "event"
    },
    {
      "anonymous": false,
      "inputs": [
        {
          "indexed": true,
          "internalType": "bytes32",
          "name": "role",
          "type": "bytes32"
        },
        {
          "indexed": true,
          "internalType": "bytes32",
          "name": "previousAdminRole",
          "type": "bytes32"
        },
        {
          "indexed": true,
          "internalType": "bytes32",
          "name": "newAdminRole",
          "type": "bytes32"
        }
      ],
      "name": "RoleAdminChanged",
      "type": "event"
    },
    {
      "anonymous": false,
      "inputs": [
        {
          "indexed": true,
          "internalType": "bytes32",
          "name": "role",
          "type": "bytes32"
        },
        {
          "indexed": true,
          "internalType": "address",
          "name": "account",
          "type": "address"
        },
        {
          "indexed": true,
          "internalType": "address",
          "name": "sender",
          "type": "address"
        }
      ],
      "name": "RoleGranted",
      "type": "event"
    },
    {
      "anonymous": false,
      "inputs": [
        {
          "indexed": true,
          "internalType": "bytes32",
          "name": "role",
          "type": "bytes32"
        },
        {
          "indexed": true,
          "internalType": "address",
          "name": "account",
          "type": "address"
        },
        {
          "indexed": true,
          "internalType": "address",
          "name": "sender",
          "type": "address"
        }
      ],
      "name": "RoleRevoked",
      "type": "event"
    },
    {
      "anonymous": false,
      "inputs": [
        {
          "indexed": true,
          "internalType": "address",
          "name": "from",
          "type": "address"
        },
        {
          "indexed": true,
          "internalType": "address",
          "name": "to",
          "type": "address"
        },
        {
          "indexed": true,
          "internalType": "uint256",
          "name": "tokenId",
          "type": "uint256"
        }
      ],
      "name": "Transfer",
      "type": "event"
    },
    {
      "inputs": [],
      "name": "DEFAULT_ADMIN_ROLE",
      "outputs": [
        {
          "internalType": "bytes32",
          "name": "",
          "type": "bytes32"
        }
      ],
      "stateMutability": "view",
      "type": "function"
    },
    {
      "inputs": [],
      "name": "MANAGER_ROLE",
      "outputs": [
        {
          "internalType": "bytes32",
          "name": "",
          "type": "bytes32"
        }
      ],
      "stateMutability": "view",
      "type": "function"
    },
    {
      "inputs": [],
      "name": "_baseURIPrefix",
      "outputs": [
        {
          "internalType": "string",
          "name": "",
          "type": "string"
        }
      ],
      "stateMutability": "view",
      "type": "function"
    },
    {
      "inputs": [
        {
          "internalType": "address",
          "name": "to",
          "type": "address"
        },
        {
          "internalType": "uint256",
          "name": "tokenId",
          "type": "uint256"
        }
      ],
      "name": "approve",
      "outputs": [],
      "stateMutability": "nonpayable",
      "type": "function"
    },
    {
      "inputs": [
        {
          "internalType": "address",
          "name": "owner",
          "type": "address"
        }
      ],
      "name": "balanceOf",
      "outputs": [
        {
          "internalType": "uint256",
          "name": "",
          "type": "uint256"
        }
      ],
      "stateMutability": "view",
      "type": "function"
    },
    {
      "inputs": [
        {
          "internalType": "uint256",
          "name": "tokenId",
          "type": "uint256"
        }
      ],
      "name": "burn",
      "outputs": [],
      "stateMutability": "nonpayable",
      "type": "function"
    },
    {
      "inputs": [
        {
          "internalType": "uint256",
          "name": "tokenId",
          "type": "uint256"
        }
      ],
      "name": "getApproved",
      "outputs": [
        {
          "internalType": "address",
          "name": "",
          "type": "address"
        }
      ],
      "stateMutability": "view",
      "type": "function"
    },
    {
      "inputs": [
        {
          "internalType": "bytes32",
          "name": "role",
          "type": "bytes32"
        }
      ],
      "name": "getRoleAdmin",
      "outputs": [
        {
          "internalType": "bytes32",
          "name": "",
          "type": "bytes32"
        }
      ],
      "stateMutability": "view",
      "type": "function"
    },
    {
      "inputs": [
        {
          "internalType": "bytes32",
          "name": "role",
          "type": "bytes32"
        },
        {
          "internalType": "uint256",
          "name": "index",
          "type": "uint256"
        }
      ],
      "name": "getRoleMember",
      "outputs": [
        {
          "internalType": "address",
          "name": "",
          "type": "address"
        }
      ],
      "stateMutability": "view",
      "type": "function"
    },
    {
      "inputs": [
        {
          "internalType": "bytes32",
          "name": "role",
          "type": "bytes32"
        }
      ],
      "name": "getRoleMemberCount",
      "outputs": [
        {
          "internalType": "uint256",
          "name": "",
          "type": "uint256"
        }
      ],
      "stateMutability": "view",
      "type": "function"
    },
    {
      "inputs": [
        {
          "internalType": "bytes32",
          "name": "role",
          "type": "bytes32"
        },
        {
          "internalType": "address",
          "name": "account",
          "type": "address"
        }
      ],
      "name": "grantRole",
      "outputs": [],
      "stateMutability": "nonpayable",
      "type": "function"
    },
    {
      "inputs": [
        {
          "internalType": "bytes32",
          "name": "role",
          "type": "bytes32"
        },
        {
          "internalType": "address",
          "name": "account",
          "type": "address"
        }
      ],
      "name": "hasRole",
      "outputs": [
        {
          "internalType": "bool",
          "name": "",
          "type": "bool"
        }
      ],
      "stateMutability": "view",
      "type": "function"
    },
    {
      "inputs": [
        {
          "internalType": "address",
          "name": "owner",
          "type": "address"
        },
        {
          "internalType": "address",
          "name": "operator",
          "type": "address"
        }
      ],
      "name": "isApprovedForAll",
      "outputs": [
        {
          "internalType": "bool",
          "name": "",
          "type": "bool"
        }
      ],
      "stateMutability": "view",
      "type": "function"
    },
    {
      "inputs": [
        {
          "internalType": "address",
          "name": "to",
          "type": "address"
        },
        {
          "internalType": "uint256",
          "name": "tokendId",
          "type": "uint256"
        }
      ],
      "name": "mint",
      "outputs": [],
      "stateMutability": "nonpayable",
      "type": "function"
    },
    {
      "inputs": [],
      "name": "name",
      "outputs": [
        {
          "internalType": "string",
          "name": "",
          "type": "string"
        }
      ],
      "stateMutability": "view",
      "type": "function"
    },
    {
      "inputs": [
        {
          "internalType": "uint256",
          "name": "tokenId",
          "type": "uint256"
        }
      ],
      "name": "ownerOf",
      "outputs": [
        {
          "internalType": "address",
          "name": "",
          "type": "address"
        }
      ],
      "stateMutability": "view",
      "type": "function"
    },
    {
      "inputs": [
        {
          "internalType": "bytes32",
          "name": "role",
          "type": "bytes32"
        },
        {
          "internalType": "address",
          "name": "account",
          "type": "address"
        }
      ],
      "name": "renounceRole",
      "outputs": [],
      "stateMutability": "nonpayable",
      "type": "function"
    },
    {
      "inputs": [
        {
          "internalType": "bytes32",
          "name": "role",
          "type": "bytes32"
        },
        {
          "internalType": "address",
          "name": "account",
          "type": "address"
        }
      ],
      "name": "revokeRole",
      "outputs": [],
      "stateMutability": "nonpayable",
      "type": "function"
    },
    {
      "inputs": [
        {
          "internalType": "address",
          "name": "from",
          "type": "address"
        },
        {
          "internalType": "address",
          "name": "to",
          "type": "address"
        },
        {
          "internalType": "uint256",
          "name": "tokenId",
          "type": "uint256"
        }
      ],
      "name": "safeTransferFrom",
      "outputs": [],
      "stateMutability": "nonpayable",
      "type": "function"
    },
    {
      "inputs": [
        {
          "internalType": "address",
          "name": "from",
          "type": "address"
        },
        {
          "internalType": "address",
          "name": "to",
          "type": "address"
        },
        {
          "internalType": "uint256",
          "name": "tokenId",
          "type": "uint256"
        },
        {
          "internalType": "bytes",
          "name": "data",
          "type": "bytes"
        }
      ],
      "name": "safeTransferFrom",
      "outputs": [],
      "stateMutability": "nonpayable",
      "type": "function"
    },
    {
      "inputs": [
        {
          "internalType": "address",
          "name": "operator",
          "type": "address"
        },
        {
          "internalType": "bool",
          "name": "approved",
          "type": "bool"
        }
      ],
      "name": "setApprovalForAll",
      "outputs": [],
      "stateMutability": "nonpayable",
      "type": "function"
    },
    {
      "inputs": [
        {
          "internalType": "string",
          "name": "baseURIPrefix",
          "type": "string"
        }
      ],
      "name": "setBaseURI",
      "outputs": [],
      "stateMutability": "nonpayable",
      "type": "function"
    },
    {
      "inputs": [
        {
          "internalType": "bytes4",
          "name": "interfaceId",
          "type": "bytes4"
        }
      ],
      "name": "supportsInterface",
      "outputs": [
        {
          "internalType": "bool",
          "name": "",
          "type": "bool"
        }
      ],
      "stateMutability": "view",
      "type": "function"
    },
    {
      "inputs": [],
      "name": "symbol",
      "outputs": [
        {
          "internalType": "string",
          "name": "",
          "type": "string"
        }
      ],
      "stateMutability": "view",
      "type": "function"
    },
    {
      "inputs": [
        {
          "internalType": "uint256",
          "name": "tokenId",
          "type": "uint256"
        }
      ],
      "name": "tokenURI",
      "outputs": [
        {
          "internalType": "string",
          "name": "",
          "type": "string"
        }
      ],
      "stateMutability": "view",
      "type": "function"
    },
    {
      "inputs": [
        {
          "internalType": "address",
          "name": "from",
          "type": "address"
        },
        {
          "internalType": "address",
          "name": "to",
          "type": "address"
        },
        {
          "internalType": "uint256",
          "name": "tokenId",
          "type": "uint256"
        }
      ],
      "name": "transferFrom",
      "outputs": [],
      "stateMutability": "nonpayable",
      "type": "function"
    }
  ],
  "transactionHash": "0xbbb2adeea8295517f1ca77100c1d57b1210ceec060ae0e5fe9e6c568b7800d03",
  "args": [
    "GPass",
    "GPass"
  ],
  "numDeployments": 1,
  "solcInputHash": "a0b607c37138d2af9215ab8193eab856",
  "bytecode": "0x60806040523480156200001157600080fd5b50604051620024a7380380620024a78339810160408190526200003491620002af565b81816000620000448382620003a7565b506001620000538282620003a7565b50620000659150600090503362000099565b620000917f241ecf16d79d0f8dbfb92cbc07fe17840425976cf0667f022fe9877caa831b083362000099565b505062000473565b620000a58282620000a9565b5050565b620000b58282620000d4565b6000828152600760205260409020620000cf908262000178565b505050565b60008281526006602090815260408083206001600160a01b038516845290915290205460ff16620000a55760008281526006602090815260408083206001600160a01b03851684529091529020805460ff19166001179055620001343390565b6001600160a01b0316816001600160a01b0316837f2f8788117e7eff1d82e926ec794901d17c78024a50270940304540a733656f0d60405160405180910390a45050565b60006200018f836001600160a01b03841662000198565b90505b92915050565b6000818152600183016020526040812054620001e15750815460018181018455600084815260208082209093018490558454848252828601909352604090209190915562000192565b50600062000192565b634e487b7160e01b600052604160045260246000fd5b600082601f8301126200021257600080fd5b81516001600160401b03808211156200022f576200022f620001ea565b604051601f8301601f19908116603f011681019082821181831017156200025a576200025a620001ea565b816040528381526020925086838588010111156200027757600080fd5b600091505b838210156200029b57858201830151818301840152908201906200027c565b600093810190920192909252949350505050565b60008060408385031215620002c357600080fd5b82516001600160401b0380821115620002db57600080fd5b620002e98683870162000200565b935060208501519150808211156200030057600080fd5b506200030f8582860162000200565b9150509250929050565b600181811c908216806200032e57607f821691505b6020821081036200034f57634e487b7160e01b600052602260045260246000fd5b50919050565b601f821115620000cf57600081815260208120601f850160051c810160208610156200037e5750805b601f850160051c820191505b818110156200039f578281556001016200038a565b505050505050565b81516001600160401b03811115620003c357620003c3620001ea565b620003db81620003d4845462000319565b8462000355565b602080601f831160018114620004135760008415620003fa5750858301515b600019600386901b1c1916600185901b1785556200039f565b600085815260208120601f198616915b82811015620004445788860151825594840194600190910190840162000423565b5085821015620004635787850151600019600388901b60f8161c191681555b5050505050600190811b01905550565b61202480620004836000396000f3fe608060405234801561001057600080fd5b506004361061018e5760003560e01c80636352211e116100de578063a22cb46511610097578063ca15c87311610071578063ca15c87314610363578063d547741f14610376578063e985e9c514610389578063ec87621c146103c557600080fd5b8063a22cb4651461032a578063b88d4fde1461033d578063c87b56dd1461035057600080fd5b80636352211e146102ce57806370a08231146102e15780639010d07c146102f457806391d148541461030757806395d89b411461031a578063a217fddf1461032257600080fd5b80632f2ff15d1161014b57806342842e0e1161012557806342842e0e1461028d57806342966c68146102a057806355f804b3146102b35780635fa4e6c4146102c657600080fd5b80632f2ff15d1461025457806336568abe1461026757806340c10f191461027a57600080fd5b806301ffc9a71461019357806306fdde03146101bb578063081812fc146101d0578063095ea7b3146101fb57806323b872dd14610210578063248a9ca314610223575b600080fd5b6101a66101a13660046118f3565b6103ec565b60405190151581526020015b60405180910390f35b6101c3610432565b6040516101b29190611960565b6101e36101de366004611973565b6104c4565b6040516001600160a01b0390911681526020016101b2565b61020e6102093660046119a8565b6104eb565b005b61020e61021e3660046119d2565b610605565b610246610231366004611973565b60009081526006602052604090206001015490565b6040519081526020016101b2565b61020e610262366004611a0e565b610637565b61020e610275366004611a0e565b61065c565b61020e6102883660046119a8565b6106da565b61020e61029b3660046119d2565b61074b565b61020e6102ae366004611973565b610766565b61020e6102c1366004611ac6565b610797565b6101c361080a565b6101e36102dc366004611973565b610898565b6102466102ef366004611b0f565b6108f8565b6101e3610302366004611b2a565b61097e565b6101a6610315366004611a0e565b61099d565b6101c36109c8565b610246600081565b61020e610338366004611b4c565b6109d7565b61020e61034b366004611b88565b6109e2565b6101c361035e366004611973565b610a1a565b610246610371366004611973565b610a80565b61020e610384366004611a0e565b610a97565b6101a6610397366004611c04565b6001600160a01b03918216600090815260056020908152604080832093909416825291909152205460ff1690565b6102467f241ecf16d79d0f8dbfb92cbc07fe17840425976cf0667f022fe9877caa831b0881565b60006001600160e01b031982166380ac58cd60e01b148061041d57506001600160e01b03198216630b7f5a3560e31b145b8061042c575061042c82610abc565b92915050565b60606000805461044190611c2e565b80601f016020809104026020016040519081016040528092919081815260200182805461046d90611c2e565b80156104ba5780601f1061048f576101008083540402835291602001916104ba565b820191906000526020600020905b81548152906001019060200180831161049d57829003601f168201915b5050505050905090565b60006104cf82610ae1565b506000908152600460205260409020546001600160a01b031690565b60006104f682610898565b9050806001600160a01b0316836001600160a01b0316036105685760405162461bcd60e51b815260206004820152602160248201527f4552433732313a20617070726f76616c20746f2063757272656e74206f776e656044820152603960f91b60648201526084015b60405180910390fd5b336001600160a01b038216148061058457506105848133610397565b6105f65760405162461bcd60e51b815260206004820152603d60248201527f4552433732313a20617070726f76652063616c6c6572206973206e6f7420746f60448201527f6b656e206f776e6572206f7220617070726f76656420666f7220616c6c000000606482015260840161055f565b6106008383610b40565b505050565b610610335b82610bae565b61062c5760405162461bcd60e51b815260040161055f90611c68565b610600838383610c2d565b60008281526006602052604090206001015461065281610d91565b6106008383610d9b565b6001600160a01b03811633146106cc5760405162461bcd60e51b815260206004820152602f60248201527f416363657373436f6e74726f6c3a2063616e206f6e6c792072656e6f756e636560448201526e103937b632b9903337b91039b2b63360891b606482015260840161055f565b6106d68282610dbd565b5050565b6107047f241ecf16d79d0f8dbfb92cbc07fe17840425976cf0667f022fe9877caa831b083361099d565b6107415760405162461bcd60e51b815260206004820152600e60248201526d24b73b30b634b21039b2b73232b960911b604482015260640161055f565b6106d68282610ddf565b610600838383604051806020016040528060008152506109e2565b61076f3361060a565b61078b5760405162461bcd60e51b815260040161055f90611c68565b61079481610df9565b50565b6107c17f241ecf16d79d0f8dbfb92cbc07fe17840425976cf0667f022fe9877caa831b083361099d565b6107fe5760405162461bcd60e51b815260206004820152600e60248201526d24b73b30b634b21039b2b73232b960911b604482015260640161055f565b60086106d68282611d03565b6008805461081790611c2e565b80601f016020809104026020016040519081016040528092919081815260200182805461084390611c2e565b80156108905780601f1061086557610100808354040283529160200191610890565b820191906000526020600020905b81548152906001019060200180831161087357829003601f168201915b505050505081565b6000818152600260205260408120546001600160a01b03168061042c5760405162461bcd60e51b8152602060048201526018602482015277115490cdcc8c4e881a5b9d985b1a59081d1bdad95b88125160421b604482015260640161055f565b60006001600160a01b0382166109625760405162461bcd60e51b815260206004820152602960248201527f4552433732313a2061646472657373207a65726f206973206e6f7420612076616044820152683634b21037bbb732b960b91b606482015260840161055f565b506001600160a01b031660009081526003602052604090205490565b60008281526007602052604081206109969083610e8e565b9392505050565b60009182526006602090815260408084206001600160a01b0393909316845291905290205460ff1690565b60606001805461044190611c2e565b6106d6338383610e9a565b6109ec3383610bae565b610a085760405162461bcd60e51b815260040161055f90611c68565b610a1484848484610f68565b50505050565b6060610a2582610ae1565b6000610a2f610f9b565b90506000815111610a4f5760405180602001604052806000815250610996565b80610a5984610faa565b604051602001610a6a929190611dc3565b6040516020818303038152906040529392505050565b600081815260076020526040812061042c9061103d565b600082815260066020526040902060010154610ab281610d91565b6106008383610dbd565b60006001600160e01b03198216635a05180f60e01b148061042c575061042c82611047565b6000818152600260205260409020546001600160a01b03166107945760405162461bcd60e51b8152602060048201526018602482015277115490cdcc8c4e881a5b9d985b1a59081d1bdad95b88125160421b604482015260640161055f565b600081815260046020526040902080546001600160a01b0319166001600160a01b0384169081179091558190610b7582610898565b6001600160a01b03167f8c5be1e5ebec7d5bd14f71427d1e84f3dd0314c0f7b2291e5b200ac8c7c3b92560405160405180910390a45050565b600080610bba83610898565b9050806001600160a01b0316846001600160a01b03161480610c0157506001600160a01b0380821660009081526005602090815260408083209388168352929052205460ff165b80610c255750836001600160a01b0316610c1a846104c4565b6001600160a01b0316145b949350505050565b826001600160a01b0316610c4082610898565b6001600160a01b031614610c665760405162461bcd60e51b815260040161055f90611df2565b6001600160a01b038216610cc85760405162461bcd60e51b8152602060048201526024808201527f4552433732313a207472616e7366657220746f20746865207a65726f206164646044820152637265737360e01b606482015260840161055f565b826001600160a01b0316610cdb82610898565b6001600160a01b031614610d015760405162461bcd60e51b815260040161055f90611df2565b600081815260046020908152604080832080546001600160a01b03199081169091556001600160a01b0387811680865260038552838620805460001901905590871680865283862080546001019055868652600290945282852080549092168417909155905184937fddf252ad1be2c89b69c2b068fc378daa952ba7f163c4a11628f55a4df523b3ef91a4505050565b610794813361106c565b610da582826110c5565b6000828152600760205260409020610600908261114b565b610dc78282611160565b600082815260076020526040902061060090826111c7565b6106d68282604051806020016040528060008152506111dc565b6000610e0482610898565b9050610e0f82610898565b600083815260046020908152604080832080546001600160a01b03199081169091556001600160a01b0385168085526003845282852080546000190190558785526002909352818420805490911690555192935084927fddf252ad1be2c89b69c2b068fc378daa952ba7f163c4a11628f55a4df523b3ef908390a45050565b6000610996838361120f565b816001600160a01b0316836001600160a01b031603610efb5760405162461bcd60e51b815260206004820152601960248201527f4552433732313a20617070726f766520746f2063616c6c657200000000000000604482015260640161055f565b6001600160a01b03838116600081815260056020908152604080832094871680845294825291829020805460ff191686151590811790915591519182527f17307eab39ab6107e8899845ad3d59bd9653f200f220920489ca2b5937696c31910160405180910390a3505050565b610f73848484610c2d565b610f7f84848484611239565b610a145760405162461bcd60e51b815260040161055f90611e37565b60606008805461044190611c2e565b60606000610fb78361133a565b600101905060008167ffffffffffffffff811115610fd757610fd7611a3a565b6040519080825280601f01601f191660200182016040528015611001576020820181803683370190505b5090508181016020015b600019016f181899199a1a9b1b9c1cb0b131b232b360811b600a86061a8153600a850494508461100b57509392505050565b600061042c825490565b60006001600160e01b03198216637965db0b60e01b148061042c575061042c82611412565b611076828261099d565b6106d65761108381611462565b61108e836020611474565b60405160200161109f929190611e89565b60408051601f198184030181529082905262461bcd60e51b825261055f91600401611960565b6110cf828261099d565b6106d65760008281526006602090815260408083206001600160a01b03851684529091529020805460ff191660011790556111073390565b6001600160a01b0316816001600160a01b0316837f2f8788117e7eff1d82e926ec794901d17c78024a50270940304540a733656f0d60405160405180910390a45050565b6000610996836001600160a01b038416611610565b61116a828261099d565b156106d65760008281526006602090815260408083206001600160a01b0385168085529252808320805460ff1916905551339285917ff6391f5c32d9c69d2a47ea670b442974b53935d1edc7fd64eb21e047a839171b9190a45050565b6000610996836001600160a01b03841661165f565b6111e68383611752565b6111f36000848484611239565b6106005760405162461bcd60e51b815260040161055f90611e37565b600082600001828154811061122657611226611efe565b9060005260206000200154905092915050565b60006001600160a01b0384163b1561132f57604051630a85bd0160e11b81526001600160a01b0385169063150b7a029061127d903390899088908890600401611f14565b6020604051808303816000875af19250505080156112b8575060408051601f3d908101601f191682019092526112b591810190611f51565b60015b611315573d8080156112e6576040519150601f19603f3d011682016040523d82523d6000602084013e6112eb565b606091505b50805160000361130d5760405162461bcd60e51b815260040161055f90611e37565b805181602001fd5b6001600160e01b031916630a85bd0160e11b149050610c25565b506001949350505050565b60008072184f03e93ff9f4daa797ed6e38ed64bf6a1f0160401b83106113795772184f03e93ff9f4daa797ed6e38ed64bf6a1f0160401b830492506040015b6d04ee2d6d415b85acef810000000083106113a5576d04ee2d6d415b85acef8100000000830492506020015b662386f26fc1000083106113c357662386f26fc10000830492506010015b6305f5e10083106113db576305f5e100830492506008015b61271083106113ef57612710830492506004015b60648310611401576064830492506002015b600a831061042c5760010192915050565b60006001600160e01b031982166380ac58cd60e01b148061144357506001600160e01b03198216635b5e139f60e01b145b8061042c57506301ffc9a760e01b6001600160e01b031983161461042c565b606061042c6001600160a01b03831660145b60606000611483836002611f84565b61148e906002611f9b565b67ffffffffffffffff8111156114a6576114a6611a3a565b6040519080825280601f01601f1916602001820160405280156114d0576020820181803683370190505b509050600360fc1b816000815181106114eb576114eb611efe565b60200101906001600160f81b031916908160001a905350600f60fb1b8160018151811061151a5761151a611efe565b60200101906001600160f81b031916908160001a905350600061153e846002611f84565b611549906001611f9b565b90505b60018111156115c1576f181899199a1a9b1b9c1cb0b131b232b360811b85600f166010811061157d5761157d611efe565b1a60f81b82828151811061159357611593611efe565b60200101906001600160f81b031916908160001a90535060049490941c936115ba81611fae565b905061154c565b5083156109965760405162461bcd60e51b815260206004820181905260248201527f537472696e67733a20686578206c656e67746820696e73756666696369656e74604482015260640161055f565b60008181526001830160205260408120546116575750815460018181018455600084815260208082209093018490558454848252828601909352604090209190915561042c565b50600061042c565b60008181526001830160205260408120548015611748576000611683600183611fc5565b855490915060009061169790600190611fc5565b90508181146116fc5760008660000182815481106116b7576116b7611efe565b90600052602060002001549050808760000184815481106116da576116da611efe565b6000918252602080832090910192909255918252600188019052604090208390555b855486908061170d5761170d611fd8565b60019003818190600052602060002001600090559055856001016000868152602001908152602001600020600090556001935050505061042c565b600091505061042c565b6001600160a01b0382166117a85760405162461bcd60e51b815260206004820181905260248201527f4552433732313a206d696e7420746f20746865207a65726f2061646472657373604482015260640161055f565b6000818152600260205260409020546001600160a01b03161561180d5760405162461bcd60e51b815260206004820152601c60248201527f4552433732313a20746f6b656e20616c7265616479206d696e74656400000000604482015260640161055f565b6000818152600260205260409020546001600160a01b0316156118725760405162461bcd60e51b815260206004820152601c60248201527f4552433732313a20746f6b656e20616c7265616479206d696e74656400000000604482015260640161055f565b6001600160a01b038216600081815260036020908152604080832080546001019055848352600290915280822080546001600160a01b0319168417905551839291907fddf252ad1be2c89b69c2b068fc378daa952ba7f163c4a11628f55a4df523b3ef908290a45050565b6001600160e01b03198116811461079457600080fd5b60006020828403121561190557600080fd5b8135610996816118dd565b60005b8381101561192b578181015183820152602001611913565b50506000910152565b6000815180845261194c816020860160208601611910565b601f01601f19169290920160200192915050565b6020815260006109966020830184611934565b60006020828403121561198557600080fd5b5035919050565b80356001600160a01b03811681146119a357600080fd5b919050565b600080604083850312156119bb57600080fd5b6119c48361198c565b946020939093013593505050565b6000806000606084860312156119e757600080fd5b6119f08461198c565b92506119fe6020850161198c565b9150604084013590509250925092565b60008060408385031215611a2157600080fd5b82359150611a316020840161198c565b90509250929050565b634e487b7160e01b600052604160045260246000fd5b600067ffffffffffffffff80841115611a6b57611a6b611a3a565b604051601f8501601f19908116603f01168101908282118183101715611a9357611a93611a3a565b81604052809350858152868686011115611aac57600080fd5b858560208301376000602087830101525050509392505050565b600060208284031215611ad857600080fd5b813567ffffffffffffffff811115611aef57600080fd5b8201601f81018413611b0057600080fd5b610c2584823560208401611a50565b600060208284031215611b2157600080fd5b6109968261198c565b60008060408385031215611b3d57600080fd5b50508035926020909101359150565b60008060408385031215611b5f57600080fd5b611b688361198c565b915060208301358015158114611b7d57600080fd5b809150509250929050565b60008060008060808587031215611b9e57600080fd5b611ba78561198c565b9350611bb56020860161198c565b925060408501359150606085013567ffffffffffffffff811115611bd857600080fd5b8501601f81018713611be957600080fd5b611bf887823560208401611a50565b91505092959194509250565b60008060408385031215611c1757600080fd5b611c208361198c565b9150611a316020840161198c565b600181811c90821680611c4257607f821691505b602082108103611c6257634e487b7160e01b600052602260045260246000fd5b50919050565b6020808252602d908201527f4552433732313a2063616c6c6572206973206e6f7420746f6b656e206f776e6560408201526c1c881bdc88185c1c1c9bdd9959609a1b606082015260800190565b601f82111561060057600081815260208120601f850160051c81016020861015611cdc5750805b601f850160051c820191505b81811015611cfb57828155600101611ce8565b505050505050565b815167ffffffffffffffff811115611d1d57611d1d611a3a565b611d3181611d2b8454611c2e565b84611cb5565b602080601f831160018114611d665760008415611d4e5750858301515b600019600386901b1c1916600185901b178555611cfb565b600085815260208120601f198616915b82811015611d9557888601518255948401946001909101908401611d76565b5085821015611db35787850151600019600388901b60f8161c191681555b5050505050600190811b01905550565b60008351611dd5818460208801611910565b835190830190611de9818360208801611910565b01949350505050565b60208082526025908201527f4552433732313a207472616e736665722066726f6d20696e636f72726563742060408201526437bbb732b960d91b606082015260800190565b60208082526032908201527f4552433732313a207472616e7366657220746f206e6f6e20455243373231526560408201527131b2b4bb32b91034b6b83632b6b2b73a32b960711b606082015260800190565b7f416363657373436f6e74726f6c3a206163636f756e7420000000000000000000815260008351611ec1816017850160208801611910565b7001034b99036b4b9b9b4b733903937b6329607d1b6017918401918201528351611ef2816028840160208801611910565b01602801949350505050565b634e487b7160e01b600052603260045260246000fd5b6001600160a01b0385811682528416602082015260408101839052608060608201819052600090611f4790830184611934565b9695505050505050565b600060208284031215611f6357600080fd5b8151610996816118dd565b634e487b7160e01b600052601160045260246000fd5b808202811582820484141761042c5761042c611f6e565b8082018082111561042c5761042c611f6e565b600081611fbd57611fbd611f6e565b506000190190565b8181038181111561042c5761042c611f6e565b634e487b7160e01b600052603160045260246000fdfea2646970667358221220a76f4623205eaf5576e19d3e7446b63a8e67a75468b1cc236abb8453d4939e5264736f6c63430008130033",
  "devdoc": {
    "events": {
      "Approval(address,address,uint256)": {
        "details": "Emitted when `owner` enables `approved` to manage the `tokenId` token."
      },
      "ApprovalForAll(address,address,bool)": {
        "details": "Emitted when `owner` enables or disables (`approved`) `operator` to manage all of its assets."
      },
      "RoleAdminChanged(bytes32,bytes32,bytes32)": {
        "details": "Emitted when `newAdminRole` is set as ``role``'s admin role, replacing `previousAdminRole` `DEFAULT_ADMIN_ROLE` is the starting admin for all roles, despite {RoleAdminChanged} not being emitted signaling this. _Available since v3.1._"
      },
      "RoleGranted(bytes32,address,address)": {
        "details": "Emitted when `account` is granted `role`. `sender` is the account that originated the contract call, an admin role bearer except when using {AccessControl-_setupRole}."
      },
      "RoleRevoked(bytes32,address,address)": {
        "details": "Emitted when `account` is revoked `role`. `sender` is the account that originated the contract call:   - if using `revokeRole`, it is the admin role bearer   - if using `renounceRole`, it is the role bearer (i.e. `account`)"
      },
      "Transfer(address,address,uint256)": {
        "details": "Emitted when `tokenId` token is transferred from `from` to `to`."
      }
    },
    "kind": "dev",
    "methods": {
      "approve(address,uint256)": {
        "details": "See {IERC721-approve}."
      },
      "balanceOf(address)": {
        "details": "See {IERC721-balanceOf}."
      },
      "burn(uint256)": {
        "details": "Burns `tokenId`. See {ERC721-_burn}. Requirements: - The caller must own `tokenId` or be an approved operator."
      },
      "getApproved(uint256)": {
        "details": "See {IERC721-getApproved}."
      },
      "getRoleAdmin(bytes32)": {
        "details": "Returns the admin role that controls `role`. See {grantRole} and {revokeRole}. To change a role's admin, use {_setRoleAdmin}."
      },
      "getRoleMember(bytes32,uint256)": {
        "details": "Returns one of the accounts that have `role`. `index` must be a value between 0 and {getRoleMemberCount}, non-inclusive. Role bearers are not sorted in any particular way, and their ordering may change at any point. WARNING: When using {getRoleMember} and {getRoleMemberCount}, make sure you perform all queries on the same block. See the following https://forum.openzeppelin.com/t/iterating-over-elements-on-enumerableset-in-openzeppelin-contracts/2296[forum post] for more information."
      },
      "getRoleMemberCount(bytes32)": {
        "details": "Returns the number of accounts that have `role`. Can be used together with {getRoleMember} to enumerate all bearers of a role."
      },
      "grantRole(bytes32,address)": {
        "details": "Grants `role` to `account`. If `account` had not been already granted `role`, emits a {RoleGranted} event. Requirements: - the caller must have ``role``'s admin role. May emit a {RoleGranted} event."
      },
      "hasRole(bytes32,address)": {
        "details": "Returns `true` if `account` has been granted `role`."
      },
      "isApprovedForAll(address,address)": {
        "details": "See {IERC721-isApprovedForAll}."
      },
      "mint(address,uint256)": {
        "params": {
          "to": "receiver address",
          "tokendId": "tokenId"
        }
      },
      "name()": {
        "details": "See {IERC721Metadata-name}."
      },
      "ownerOf(uint256)": {
        "details": "See {IERC721-ownerOf}."
      },
      "renounceRole(bytes32,address)": {
        "details": "Revokes `role` from the calling account. Roles are often managed via {grantRole} and {revokeRole}: this function's purpose is to provide a mechanism for accounts to lose their privileges if they are compromised (such as when a trusted device is misplaced). If the calling account had been revoked `role`, emits a {RoleRevoked} event. Requirements: - the caller must be `account`. May emit a {RoleRevoked} event."
      },
      "revokeRole(bytes32,address)": {
        "details": "Revokes `role` from `account`. If `account` had been granted `role`, emits a {RoleRevoked} event. Requirements: - the caller must have ``role``'s admin role. May emit a {RoleRevoked} event."
      },
      "safeTransferFrom(address,address,uint256)": {
        "details": "See {IERC721-safeTransferFrom}."
      },
      "safeTransferFrom(address,address,uint256,bytes)": {
        "details": "See {IERC721-safeTransferFrom}."
      },
      "setApprovalForAll(address,bool)": {
        "details": "See {IERC721-setApprovalForAll}."
      },
      "setBaseURI(string)": {
        "params": {
          "baseURIPrefix": "newBaseURI"
        }
      },
      "symbol()": {
        "details": "See {IERC721Metadata-symbol}."
      },
      "tokenURI(uint256)": {
        "details": "See {IERC721Metadata-tokenURI}."
      },
      "transferFrom(address,address,uint256)": {
        "details": "See {IERC721-transferFrom}."
      }
    },
    "version": 1
  },
  "userdoc": {
    "kind": "user",
    "methods": {
      "mint(address,uint256)": {
        "notice": "issue new nft"
      },
      "setBaseURI(string)": {
        "notice": "update new baseURI"
      }
    },
    "version": 1
  },
  "storageLayout": {
    "storage": [
      {
        "astId": 564,
        "contract": "contracts/GamePassNFT.sol:GamePassNFT",
        "label": "_name",
        "offset": 0,
        "slot": "0",
        "type": "t_string_storage"
      },
      {
        "astId": 566,
        "contract": "contracts/GamePassNFT.sol:GamePassNFT",
        "label": "_symbol",
        "offset": 0,
        "slot": "1",
        "type": "t_string_storage"
      },
      {
        "astId": 570,
        "contract": "contracts/GamePassNFT.sol:GamePassNFT",
        "label": "_owners",
        "offset": 0,
        "slot": "2",
        "type": "t_mapping(t_uint256,t_address)"
      },
      {
        "astId": 574,
        "contract": "contracts/GamePassNFT.sol:GamePassNFT",
        "label": "_balances",
        "offset": 0,
        "slot": "3",
        "type": "t_mapping(t_address,t_uint256)"
      },
      {
        "astId": 578,
        "contract": "contracts/GamePassNFT.sol:GamePassNFT",
        "label": "_tokenApprovals",
        "offset": 0,
        "slot": "4",
        "type": "t_mapping(t_uint256,t_address)"
      },
      {
        "astId": 584,
        "contract": "contracts/GamePassNFT.sol:GamePassNFT",
        "label": "_operatorApprovals",
        "offset": 0,
        "slot": "5",
        "type": "t_mapping(t_address,t_mapping(t_address,t_bool))"
      },
      {
        "astId": 24,
        "contract": "contracts/GamePassNFT.sol:GamePassNFT",
        "label": "_roles",
        "offset": 0,
        "slot": "6",
        "type": "t_mapping(t_bytes32,t_struct(RoleData)19_storage)"
      },
      {
        "astId": 334,
        "contract": "contracts/GamePassNFT.sol:GamePassNFT",
        "label": "_roleMembers",
        "offset": 0,
        "slot": "7",
        "type": "t_mapping(t_bytes32,t_struct(AddressSet)3936_storage)"
      },
      {
        "astId": 4609,
        "contract": "contracts/GamePassNFT.sol:GamePassNFT",
        "label": "_baseURIPrefix",
        "offset": 0,
        "slot": "8",
        "type": "t_string_storage"
      }
    ],
    "types": {
      "t_address": {
        "encoding": "inplace",
        "label": "address",
        "numberOfBytes": "20"
      },
      "t_array(t_bytes32)dyn_storage": {
        "base": "t_bytes32",
        "encoding": "dynamic_array",
        "label": "bytes32[]",
        "numberOfBytes": "32"
      },
      "t_bool": {
        "encoding": "inplace",
        "label": "bool",
        "numberOfBytes": "1"
      },
      "t_bytes32": {
        "encoding": "inplace",
        "label": "bytes32",
        "numberOfBytes": "32"
      },
      "t_mapping(t_address,t_bool)": {
        "encoding": "mapping",
        "key": "t_address",
        "label": "mapping(address => bool)",
        "numberOfBytes": "32",
        "value": "t_bool"
      },
      "t_mapping(t_address,t_mapping(t_address,t_bool))": {
        "encoding": "mapping",
        "key": "t_address",
        "label": "mapping(address => mapping(address => bool))",
        "numberOfBytes": "32",
        "value": "t_mapping(t_address,t_bool)"
      },
      "t_mapping(t_address,t_uint256)": {
        "encoding": "mapping",
        "key": "t_address",
        "label": "mapping(address => uint256)",
        "numberOfBytes": "32",
        "value": "t_uint256"
      },
      "t_mapping(t_bytes32,t_struct(AddressSet)3936_storage)": {
        "encoding": "mapping",
        "key": "t_bytes32",
        "label": "mapping(bytes32 => struct EnumerableSet.AddressSet)",
        "numberOfBytes": "32",
        "value": "t_struct(AddressSet)3936_storage"
      },
      "t_mapping(t_bytes32,t_struct(RoleData)19_storage)": {
        "encoding": "mapping",
        "key": "t_bytes32",
        "label": "mapping(bytes32 => struct AccessControl.RoleData)",
        "numberOfBytes": "32",
        "value": "t_struct(RoleData)19_storage"
      },
      "t_mapping(t_bytes32,t_uint256)": {
        "encoding": "mapping",
        "key": "t_bytes32",
        "label": "mapping(bytes32 => uint256)",
        "numberOfBytes": "32",
        "value": "t_uint256"
      },
      "t_mapping(t_uint256,t_address)": {
        "encoding": "mapping",
        "key": "t_uint256",
        "label": "mapping(uint256 => address)",
        "numberOfBytes": "32",
        "value": "t_address"
      },
      "t_string_storage": {
        "encoding": "bytes",
        "label": "string",
        "numberOfBytes": "32"
      },
      "t_struct(AddressSet)3936_storage": {
        "encoding": "inplace",
        "label": "struct EnumerableSet.AddressSet",
        "members": [
          {
            "astId": 3935,
            "contract": "contracts/GamePassNFT.sol:GamePassNFT",
            "label": "_inner",
            "offset": 0,
            "slot": "0",
            "type": "t_struct(Set)3621_storage"
          }
        ],
        "numberOfBytes": "64"
      },
      "t_struct(RoleData)19_storage": {
        "encoding": "inplace",
        "label": "struct AccessControl.RoleData",
        "members": [
          {
            "astId": 16,
            "contract": "contracts/GamePassNFT.sol:GamePassNFT",
            "label": "members",
            "offset": 0,
            "slot": "0",
            "type": "t_mapping(t_address,t_bool)"
          },
          {
            "astId": 18,
            "contract": "contracts/GamePassNFT.sol:GamePassNFT",
            "label": "adminRole",
            "offset": 0,
            "slot": "1",
            "type": "t_bytes32"
          }
        ],
        "numberOfBytes": "64"
      },
      "t_struct(Set)3621_storage": {
        "encoding": "inplace",
        "label": "struct EnumerableSet.Set",
        "members": [
          {
            "astId": 3616,
            "contract": "contracts/GamePassNFT.sol:GamePassNFT",
            "label": "_values",
            "offset": 0,
            "slot": "0",
            "type": "t_array(t_bytes32)dyn_storage"
          },
          {
            "astId": 3620,
            "contract": "contracts/GamePassNFT.sol:GamePassNFT",
            "label": "_indexes",
            "offset": 0,
            "slot": "1",
            "type": "t_mapping(t_bytes32,t_uint256)"
          }
        ],
        "numberOfBytes": "64"
      },
      "t_uint256": {
        "encoding": "inplace",
        "label": "uint256",
        "numberOfBytes": "32"
      }
    }
  }
}